{
	"Saving-Bank-Project/contracts/SavingsContract.sol": {
		"SavingsContract": {
			"abi": [
				{
					"inputs": [
						{
							"internalType": "address",
							"name": "_stakeTokenAddress",
							"type": "address"
						},
						{
							"internalType": "uint256",
							"name": "_lockDurationInDays",
							"type": "uint256"
						}
					],
					"stateMutability": "nonpayable",
					"type": "constructor"
				},
				{
					"inputs": [
						{
							"internalType": "address",
							"name": "owner",
							"type": "address"
						}
					],
					"name": "OwnableInvalidOwner",
					"type": "error"
				},
				{
					"inputs": [
						{
							"internalType": "address",
							"name": "account",
							"type": "address"
						}
					],
					"name": "OwnableUnauthorizedAccount",
					"type": "error"
				},
				{
					"inputs": [],
					"name": "ReentrancyGuardReentrantCall",
					"type": "error"
				},
				{
					"anonymous": false,
					"inputs": [
						{
							"indexed": true,
							"internalType": "address",
							"name": "user",
							"type": "address"
						},
						{
							"indexed": false,
							"internalType": "uint256",
							"name": "amount",
							"type": "uint256"
						}
					],
					"name": "Deposited",
					"type": "event"
				},
				{
					"anonymous": false,
					"inputs": [
						{
							"indexed": true,
							"internalType": "address",
							"name": "previousOwner",
							"type": "address"
						},
						{
							"indexed": true,
							"internalType": "address",
							"name": "newOwner",
							"type": "address"
						}
					],
					"name": "OwnershipTransferred",
					"type": "event"
				},
				{
					"anonymous": false,
					"inputs": [
						{
							"indexed": true,
							"internalType": "address",
							"name": "user",
							"type": "address"
						},
						{
							"indexed": false,
							"internalType": "uint256",
							"name": "totalAmount",
							"type": "uint256"
						},
						{
							"indexed": false,
							"internalType": "uint256",
							"name": "totalReward",
							"type": "uint256"
						}
					],
					"name": "Withdrawn",
					"type": "event"
				},
				{
					"inputs": [],
					"name": "REWARD_RATE_PER_YEAR",
					"outputs": [
						{
							"internalType": "uint256",
							"name": "",
							"type": "uint256"
						}
					],
					"stateMutability": "view",
					"type": "function"
				},
				{
					"inputs": [
						{
							"internalType": "address",
							"name": "_user",
							"type": "address"
						}
					],
					"name": "calculatePendingReward",
					"outputs": [
						{
							"internalType": "uint256",
							"name": "",
							"type": "uint256"
						}
					],
					"stateMutability": "view",
					"type": "function"
				},
				{
					"inputs": [
						{
							"internalType": "uint256",
							"name": "_amount",
							"type": "uint256"
						}
					],
					"name": "deposit",
					"outputs": [],
					"stateMutability": "nonpayable",
					"type": "function"
				},
				{
					"inputs": [],
					"name": "owner",
					"outputs": [
						{
							"internalType": "address",
							"name": "",
							"type": "address"
						}
					],
					"stateMutability": "view",
					"type": "function"
				},
				{
					"inputs": [],
					"name": "renounceOwnership",
					"outputs": [],
					"stateMutability": "nonpayable",
					"type": "function"
				},
				{
					"inputs": [
						{
							"internalType": "address",
							"name": "",
							"type": "address"
						}
					],
					"name": "savers",
					"outputs": [
						{
							"internalType": "uint256",
							"name": "totalAmount",
							"type": "uint256"
						},
						{
							"internalType": "uint256",
							"name": "accumulatedReward",
							"type": "uint256"
						},
						{
							"internalType": "uint256",
							"name": "lastUpdateTime",
							"type": "uint256"
						}
					],
					"stateMutability": "view",
					"type": "function"
				},
				{
					"inputs": [],
					"name": "stakeToken",
					"outputs": [
						{
							"internalType": "contract IERC20",
							"name": "",
							"type": "address"
						}
					],
					"stateMutability": "view",
					"type": "function"
				},
				{
					"inputs": [
						{
							"internalType": "address",
							"name": "newOwner",
							"type": "address"
						}
					],
					"name": "transferOwnership",
					"outputs": [],
					"stateMutability": "nonpayable",
					"type": "function"
				},
				{
					"inputs": [],
					"name": "unlockDate",
					"outputs": [
						{
							"internalType": "uint256",
							"name": "",
							"type": "uint256"
						}
					],
					"stateMutability": "view",
					"type": "function"
				},
				{
					"inputs": [],
					"name": "withdraw",
					"outputs": [],
					"stateMutability": "nonpayable",
					"type": "function"
				}
			],
			"devdoc": {
				"details": "Un contrato de ahorro donde los usuarios pueden depositar múltiples veces y solo pueden retirar todo su saldo después de una fecha de desbloqueo global.",
				"errors": {
					"OwnableInvalidOwner(address)": [
						{
							"details": "The owner is not a valid owner account. (eg. `address(0)`)"
						}
					],
					"OwnableUnauthorizedAccount(address)": [
						{
							"details": "The caller account is not authorized to perform an operation."
						}
					],
					"ReentrancyGuardReentrantCall()": [
						{
							"details": "Unauthorized reentrant call."
						}
					]
				},
				"kind": "dev",
				"methods": {
					"constructor": {
						"details": "El constructor define el token y el período de bloqueo.",
						"params": {
							"_lockDurationInDays": "La cantidad de días que los fondos estarán bloqueados.",
							"_stakeTokenAddress": "La dirección del token STK."
						}
					},
					"owner()": {
						"details": "Returns the address of the current owner."
					},
					"renounceOwnership()": {
						"details": "Leaves the contract without owner. It will not be possible to call `onlyOwner` functions. Can only be called by the current owner. NOTE: Renouncing ownership will leave the contract without an owner, thereby disabling any functionality that is only available to the owner."
					},
					"transferOwnership(address)": {
						"details": "Transfers ownership of the contract to a new account (`newOwner`). Can only be called by the current owner."
					}
				},
				"title": "SavingsContract",
				"version": 1
			},
			"evm": {
				"assembly": "    /* \"Saving-Bank-Project/contracts/SavingsContract.sol\":441:4768  contract SavingsContract is Ownable, ReentrancyGuard {... */\n  mstore(0x40, 0xc0)\n    /* \"Saving-Bank-Project/contracts/SavingsContract.sol\":1628:1929  constructor(address _stakeTokenAddress, uint256 _lockDurationInDays) Ownable(msg.sender) {... */\n  callvalue\n  dup1\n  iszero\n  tag_1\n  jumpi\n  revert(0x00, 0x00)\ntag_1:\n  pop\n  mload(0x40)\n  sub(codesize, bytecodeSize)\n  dup1\n  bytecodeSize\n  dup4\n  codecopy\n  dup2\n  dup2\n  add\n  0x40\n  mstore\n  dup2\n  add\n  swap1\n  tag_2\n  swap2\n  swap1\n  tag_3\n  jump\t// in\ntag_2:\n    /* \"Saving-Bank-Project/contracts/SavingsContract.sol\":1705:1715  msg.sender */\n  caller\n    /* \"@openzeppelin/contracts/access/Ownable.sol\":1297:1298  0 */\n  0x00\n    /* \"@openzeppelin/contracts/access/Ownable.sol\":1273:1299  initialOwner == address(0) */\n  0xffffffffffffffffffffffffffffffffffffffff\n  and\n    /* \"@openzeppelin/contracts/access/Ownable.sol\":1273:1285  initialOwner */\n  dup2\n    /* \"@openzeppelin/contracts/access/Ownable.sol\":1273:1299  initialOwner == address(0) */\n  0xffffffffffffffffffffffffffffffffffffffff\n  and\n  sub\n    /* \"@openzeppelin/contracts/access/Ownable.sol\":1269:1364  if (initialOwner == address(0)) {... */\n  tag_8\n  jumpi\n    /* \"@openzeppelin/contracts/access/Ownable.sol\":1350:1351  0 */\n  0x00\n    /* \"@openzeppelin/contracts/access/Ownable.sol\":1322:1353  OwnableInvalidOwner(address(0)) */\n  mload(0x40)\n  0x1e4fbdf700000000000000000000000000000000000000000000000000000000\n  dup2\n  mstore\n  0x04\n  add\n  tag_9\n  swap2\n  swap1\n  tag_10\n  jump\t// in\ntag_9:\n  mload(0x40)\n  dup1\n  swap2\n  sub\n  swap1\n  revert\n    /* \"@openzeppelin/contracts/access/Ownable.sol\":1269:1364  if (initialOwner == address(0)) {... */\ntag_8:\n    /* \"@openzeppelin/contracts/access/Ownable.sol\":1373:1405  _transferOwnership(initialOwner) */\n  tag_11\n    /* \"@openzeppelin/contracts/access/Ownable.sol\":1392:1404  initialOwner */\n  dup2\n    /* \"@openzeppelin/contracts/access/Ownable.sol\":1373:1391  _transferOwnership */\n  shl(0x20, tag_12)\n    /* \"@openzeppelin/contracts/access/Ownable.sol\":1373:1405  _transferOwnership(initialOwner) */\n  0x20\n  shr\n  jump\t// in\ntag_11:\n    /* \"@openzeppelin/contracts/access/Ownable.sol\":1225:1412  constructor(address initialOwner) {... */\n  pop\n    /* \"@openzeppelin/contracts/utils/ReentrancyGuard.sol\":1857:1858  1 */\n  0x01\n    /* \"@openzeppelin/contracts/utils/ReentrancyGuard.sol\":2061:2068  _status */\n  dup1\n    /* \"@openzeppelin/contracts/utils/ReentrancyGuard.sol\":2061:2082  _status = NOT_ENTERED */\n  dup2\n  swap1\n  sstore\n  pop\n    /* \"Saving-Bank-Project/contracts/SavingsContract.sol\":1748:1766  _stakeTokenAddress */\n  dup2\n    /* \"Saving-Bank-Project/contracts/SavingsContract.sol\":1728:1767  stakeToken = IERC20(_stakeTokenAddress) */\n  0xffffffffffffffffffffffffffffffffffffffff\n  and\n  0x80\n  dup2\n  0xffffffffffffffffffffffffffffffffffffffff\n  and\n  dup2\n  mstore\n  pop\n  pop\n    /* \"Saving-Bank-Project/contracts/SavingsContract.sol\":1914:1920  1 days */\n  0x015180\n    /* \"Saving-Bank-Project/contracts/SavingsContract.sol\":1892:1911  _lockDurationInDays */\n  dup2\n    /* \"Saving-Bank-Project/contracts/SavingsContract.sol\":1892:1920  _lockDurationInDays * 1 days */\n  tag_15\n  swap2\n  swap1\n  tag_16\n  jump\t// in\ntag_15:\n    /* \"Saving-Bank-Project/contracts/SavingsContract.sol\":1873:1888  block.timestamp */\n  timestamp\n    /* \"Saving-Bank-Project/contracts/SavingsContract.sol\":1873:1921  block.timestamp + (_lockDurationInDays * 1 days) */\n  tag_17\n  swap2\n  swap1\n  tag_18\n  jump\t// in\ntag_17:\n    /* \"Saving-Bank-Project/contracts/SavingsContract.sol\":1860:1921  unlockDate = block.timestamp + (_lockDurationInDays * 1 days) */\n  0xa0\n  dup2\n  dup2\n  mstore\n  pop\n  pop\n    /* \"Saving-Bank-Project/contracts/SavingsContract.sol\":1628:1929  constructor(address _stakeTokenAddress, uint256 _lockDurationInDays) Ownable(msg.sender) {... */\n  pop\n  pop\n    /* \"Saving-Bank-Project/contracts/SavingsContract.sol\":441:4768  contract SavingsContract is Ownable, ReentrancyGuard {... */\n  jump(tag_19)\n    /* \"@openzeppelin/contracts/access/Ownable.sol\":2912:3099  function _transferOwnership(address newOwner) internal virtual {... */\ntag_12:\n    /* \"@openzeppelin/contracts/access/Ownable.sol\":2985:3001  address oldOwner */\n  0x00\n    /* \"@openzeppelin/contracts/access/Ownable.sol\":3004:3010  _owner */\n  0x00\n  0x00\n  swap1\n  sload\n  swap1\n  0x0100\n  exp\n  swap1\n  div\n  0xffffffffffffffffffffffffffffffffffffffff\n  and\n    /* \"@openzeppelin/contracts/access/Ownable.sol\":2985:3010  address oldOwner = _owner */\n  swap1\n  pop\n    /* \"@openzeppelin/contracts/access/Ownable.sol\":3029:3037  newOwner */\n  dup2\n    /* \"@openzeppelin/contracts/access/Ownable.sol\":3020:3026  _owner */\n  0x00\n  0x00\n    /* \"@openzeppelin/contracts/access/Ownable.sol\":3020:3037  _owner = newOwner */\n  0x0100\n  exp\n  dup2\n  sload\n  dup2\n  0xffffffffffffffffffffffffffffffffffffffff\n  mul\n  not\n  and\n  swap1\n  dup4\n  0xffffffffffffffffffffffffffffffffffffffff\n  and\n  mul\n  or\n  swap1\n  sstore\n  pop\n    /* \"@openzeppelin/contracts/access/Ownable.sol\":3083:3091  newOwner */\n  dup2\n    /* \"@openzeppelin/contracts/access/Ownable.sol\":3052:3092  OwnershipTransferred(oldOwner, newOwner) */\n  0xffffffffffffffffffffffffffffffffffffffff\n  and\n    /* \"@openzeppelin/contracts/access/Ownable.sol\":3073:3081  oldOwner */\n  dup2\n    /* \"@openzeppelin/contracts/access/Ownable.sol\":3052:3092  OwnershipTransferred(oldOwner, newOwner) */\n  0xffffffffffffffffffffffffffffffffffffffff\n  and\n  0x8be0079c531659141344cd1fd0a4f28419497f9722a3daafe3b4186f6b6457e0\n  mload(0x40)\n  mload(0x40)\n  dup1\n  swap2\n  sub\n  swap1\n  log3\n    /* \"@openzeppelin/contracts/access/Ownable.sol\":2975:3099  {... */\n  pop\n    /* \"@openzeppelin/contracts/access/Ownable.sol\":2912:3099  function _transferOwnership(address newOwner) internal virtual {... */\n  pop\n  jump\t// out\n    /* \"#utility.yul\":88:205   */\ntag_22:\n    /* \"#utility.yul\":197:198   */\n  0x00\n    /* \"#utility.yul\":194:195   */\n  0x00\n    /* \"#utility.yul\":187:199   */\n  revert\n    /* \"#utility.yul\":334:460   */\ntag_24:\n    /* \"#utility.yul\":371:378   */\n  0x00\n    /* \"#utility.yul\":411:453   */\n  0xffffffffffffffffffffffffffffffffffffffff\n    /* \"#utility.yul\":404:409   */\n  dup3\n    /* \"#utility.yul\":400:454   */\n  and\n    /* \"#utility.yul\":389:454   */\n  swap1\n  pop\n    /* \"#utility.yul\":334:460   */\n  swap2\n  swap1\n  pop\n  jump\t// out\n    /* \"#utility.yul\":466:562   */\ntag_25:\n    /* \"#utility.yul\":503:510   */\n  0x00\n    /* \"#utility.yul\":532:556   */\n  tag_39\n    /* \"#utility.yul\":550:555   */\n  dup3\n    /* \"#utility.yul\":532:556   */\n  tag_24\n  jump\t// in\ntag_39:\n    /* \"#utility.yul\":521:556   */\n  swap1\n  pop\n    /* \"#utility.yul\":466:562   */\n  swap2\n  swap1\n  pop\n  jump\t// out\n    /* \"#utility.yul\":568:690   */\ntag_26:\n    /* \"#utility.yul\":641:665   */\n  tag_41\n    /* \"#utility.yul\":659:664   */\n  dup2\n    /* \"#utility.yul\":641:665   */\n  tag_25\n  jump\t// in\ntag_41:\n    /* \"#utility.yul\":634:639   */\n  dup2\n    /* \"#utility.yul\":631:666   */\n  eq\n    /* \"#utility.yul\":621:684   */\n  tag_42\n  jumpi\n    /* \"#utility.yul\":680:681   */\n  0x00\n    /* \"#utility.yul\":677:678   */\n  0x00\n    /* \"#utility.yul\":670:682   */\n  revert\n    /* \"#utility.yul\":621:684   */\ntag_42:\n    /* \"#utility.yul\":568:690   */\n  pop\n  jump\t// out\n    /* \"#utility.yul\":696:839   */\ntag_27:\n    /* \"#utility.yul\":753:758   */\n  0x00\n    /* \"#utility.yul\":784:790   */\n  dup2\n    /* \"#utility.yul\":778:791   */\n  mload\n    /* \"#utility.yul\":769:791   */\n  swap1\n  pop\n    /* \"#utility.yul\":800:833   */\n  tag_44\n    /* \"#utility.yul\":827:832   */\n  dup2\n    /* \"#utility.yul\":800:833   */\n  tag_26\n  jump\t// in\ntag_44:\n    /* \"#utility.yul\":696:839   */\n  swap3\n  swap2\n  pop\n  pop\n  jump\t// out\n    /* \"#utility.yul\":845:922   */\ntag_28:\n    /* \"#utility.yul\":882:889   */\n  0x00\n    /* \"#utility.yul\":911:916   */\n  dup2\n    /* \"#utility.yul\":900:916   */\n  swap1\n  pop\n    /* \"#utility.yul\":845:922   */\n  swap2\n  swap1\n  pop\n  jump\t// out\n    /* \"#utility.yul\":928:1050   */\ntag_29:\n    /* \"#utility.yul\":1001:1025   */\n  tag_47\n    /* \"#utility.yul\":1019:1024   */\n  dup2\n    /* \"#utility.yul\":1001:1025   */\n  tag_28\n  jump\t// in\ntag_47:\n    /* \"#utility.yul\":994:999   */\n  dup2\n    /* \"#utility.yul\":991:1026   */\n  eq\n    /* \"#utility.yul\":981:1044   */\n  tag_48\n  jumpi\n    /* \"#utility.yul\":1040:1041   */\n  0x00\n    /* \"#utility.yul\":1037:1038   */\n  0x00\n    /* \"#utility.yul\":1030:1042   */\n  revert\n    /* \"#utility.yul\":981:1044   */\ntag_48:\n    /* \"#utility.yul\":928:1050   */\n  pop\n  jump\t// out\n    /* \"#utility.yul\":1056:1199   */\ntag_30:\n    /* \"#utility.yul\":1113:1118   */\n  0x00\n    /* \"#utility.yul\":1144:1150   */\n  dup2\n    /* \"#utility.yul\":1138:1151   */\n  mload\n    /* \"#utility.yul\":1129:1151   */\n  swap1\n  pop\n    /* \"#utility.yul\":1160:1193   */\n  tag_50\n    /* \"#utility.yul\":1187:1192   */\n  dup2\n    /* \"#utility.yul\":1160:1193   */\n  tag_29\n  jump\t// in\ntag_50:\n    /* \"#utility.yul\":1056:1199   */\n  swap3\n  swap2\n  pop\n  pop\n  jump\t// out\n    /* \"#utility.yul\":1205:1712   */\ntag_3:\n    /* \"#utility.yul\":1284:1290   */\n  0x00\n    /* \"#utility.yul\":1292:1298   */\n  0x00\n    /* \"#utility.yul\":1341:1343   */\n  0x40\n    /* \"#utility.yul\":1329:1338   */\n  dup4\n    /* \"#utility.yul\":1320:1327   */\n  dup6\n    /* \"#utility.yul\":1316:1339   */\n  sub\n    /* \"#utility.yul\":1312:1344   */\n  slt\n    /* \"#utility.yul\":1309:1428   */\n  iszero\n  tag_52\n  jumpi\n    /* \"#utility.yul\":1347:1426   */\n  tag_53\n  tag_22\n  jump\t// in\ntag_53:\n    /* \"#utility.yul\":1309:1428   */\ntag_52:\n    /* \"#utility.yul\":1467:1468   */\n  0x00\n    /* \"#utility.yul\":1492:1556   */\n  tag_54\n    /* \"#utility.yul\":1548:1555   */\n  dup6\n    /* \"#utility.yul\":1539:1545   */\n  dup3\n    /* \"#utility.yul\":1528:1537   */\n  dup7\n    /* \"#utility.yul\":1524:1546   */\n  add\n    /* \"#utility.yul\":1492:1556   */\n  tag_27\n  jump\t// in\ntag_54:\n    /* \"#utility.yul\":1482:1556   */\n  swap3\n  pop\n    /* \"#utility.yul\":1438:1566   */\n  pop\n    /* \"#utility.yul\":1605:1607   */\n  0x20\n    /* \"#utility.yul\":1631:1695   */\n  tag_55\n    /* \"#utility.yul\":1687:1694   */\n  dup6\n    /* \"#utility.yul\":1678:1684   */\n  dup3\n    /* \"#utility.yul\":1667:1676   */\n  dup7\n    /* \"#utility.yul\":1663:1685   */\n  add\n    /* \"#utility.yul\":1631:1695   */\n  tag_30\n  jump\t// in\ntag_55:\n    /* \"#utility.yul\":1621:1695   */\n  swap2\n  pop\n    /* \"#utility.yul\":1576:1705   */\n  pop\n    /* \"#utility.yul\":1205:1712   */\n  swap3\n  pop\n  swap3\n  swap1\n  pop\n  jump\t// out\n    /* \"#utility.yul\":1718:1836   */\ntag_31:\n    /* \"#utility.yul\":1805:1829   */\n  tag_57\n    /* \"#utility.yul\":1823:1828   */\n  dup2\n    /* \"#utility.yul\":1805:1829   */\n  tag_25\n  jump\t// in\ntag_57:\n    /* \"#utility.yul\":1800:1803   */\n  dup3\n    /* \"#utility.yul\":1793:1830   */\n  mstore\n    /* \"#utility.yul\":1718:1836   */\n  pop\n  pop\n  jump\t// out\n    /* \"#utility.yul\":1842:2064   */\ntag_10:\n    /* \"#utility.yul\":1935:1939   */\n  0x00\n    /* \"#utility.yul\":1973:1975   */\n  0x20\n    /* \"#utility.yul\":1962:1971   */\n  dup3\n    /* \"#utility.yul\":1958:1976   */\n  add\n    /* \"#utility.yul\":1950:1976   */\n  swap1\n  pop\n    /* \"#utility.yul\":1986:2057   */\n  tag_59\n    /* \"#utility.yul\":2054:2055   */\n  0x00\n    /* \"#utility.yul\":2043:2052   */\n  dup4\n    /* \"#utility.yul\":2039:2056   */\n  add\n    /* \"#utility.yul\":2030:2036   */\n  dup5\n    /* \"#utility.yul\":1986:2057   */\n  tag_31\n  jump\t// in\ntag_59:\n    /* \"#utility.yul\":1842:2064   */\n  swap3\n  swap2\n  pop\n  pop\n  jump\t// out\n    /* \"#utility.yul\":2070:2250   */\ntag_32:\n    /* \"#utility.yul\":2118:2195   */\n  0x4e487b7100000000000000000000000000000000000000000000000000000000\n    /* \"#utility.yul\":2115:2116   */\n  0x00\n    /* \"#utility.yul\":2108:2196   */\n  mstore\n    /* \"#utility.yul\":2215:2219   */\n  0x11\n    /* \"#utility.yul\":2212:2213   */\n  0x04\n    /* \"#utility.yul\":2205:2220   */\n  mstore\n    /* \"#utility.yul\":2239:2243   */\n  0x24\n    /* \"#utility.yul\":2236:2237   */\n  0x00\n    /* \"#utility.yul\":2229:2244   */\n  revert\n    /* \"#utility.yul\":2256:2666   */\ntag_16:\n    /* \"#utility.yul\":2296:2303   */\n  0x00\n    /* \"#utility.yul\":2319:2339   */\n  tag_62\n    /* \"#utility.yul\":2337:2338   */\n  dup3\n    /* \"#utility.yul\":2319:2339   */\n  tag_28\n  jump\t// in\ntag_62:\n    /* \"#utility.yul\":2314:2339   */\n  swap2\n  pop\n    /* \"#utility.yul\":2353:2373   */\n  tag_63\n    /* \"#utility.yul\":2371:2372   */\n  dup4\n    /* \"#utility.yul\":2353:2373   */\n  tag_28\n  jump\t// in\ntag_63:\n    /* \"#utility.yul\":2348:2373   */\n  swap3\n  pop\n    /* \"#utility.yul\":2408:2409   */\n  dup3\n    /* \"#utility.yul\":2405:2406   */\n  dup3\n    /* \"#utility.yul\":2401:2410   */\n  mul\n    /* \"#utility.yul\":2430:2460   */\n  tag_64\n    /* \"#utility.yul\":2448:2459   */\n  dup2\n    /* \"#utility.yul\":2430:2460   */\n  tag_28\n  jump\t// in\ntag_64:\n    /* \"#utility.yul\":2419:2460   */\n  swap2\n  pop\n    /* \"#utility.yul\":2609:2610   */\n  dup3\n    /* \"#utility.yul\":2600:2607   */\n  dup3\n    /* \"#utility.yul\":2596:2611   */\n  div\n    /* \"#utility.yul\":2593:2594   */\n  dup5\n    /* \"#utility.yul\":2590:2612   */\n  eq\n    /* \"#utility.yul\":2570:2571   */\n  dup4\n    /* \"#utility.yul\":2563:2572   */\n  iszero\n    /* \"#utility.yul\":2543:2626   */\n  or\n    /* \"#utility.yul\":2520:2659   */\n  tag_65\n  jumpi\n    /* \"#utility.yul\":2639:2657   */\n  tag_66\n  tag_32\n  jump\t// in\ntag_66:\n    /* \"#utility.yul\":2520:2659   */\ntag_65:\n    /* \"#utility.yul\":2304:2666   */\n  pop\n    /* \"#utility.yul\":2256:2666   */\n  swap3\n  swap2\n  pop\n  pop\n  jump\t// out\n    /* \"#utility.yul\":2672:2863   */\ntag_18:\n    /* \"#utility.yul\":2712:2715   */\n  0x00\n    /* \"#utility.yul\":2731:2751   */\n  tag_68\n    /* \"#utility.yul\":2749:2750   */\n  dup3\n    /* \"#utility.yul\":2731:2751   */\n  tag_28\n  jump\t// in\ntag_68:\n    /* \"#utility.yul\":2726:2751   */\n  swap2\n  pop\n    /* \"#utility.yul\":2765:2785   */\n  tag_69\n    /* \"#utility.yul\":2783:2784   */\n  dup4\n    /* \"#utility.yul\":2765:2785   */\n  tag_28\n  jump\t// in\ntag_69:\n    /* \"#utility.yul\":2760:2785   */\n  swap3\n  pop\n    /* \"#utility.yul\":2808:2809   */\n  dup3\n    /* \"#utility.yul\":2805:2806   */\n  dup3\n    /* \"#utility.yul\":2801:2810   */\n  add\n    /* \"#utility.yul\":2794:2810   */\n  swap1\n  pop\n    /* \"#utility.yul\":2829:2832   */\n  dup1\n    /* \"#utility.yul\":2826:2827   */\n  dup3\n    /* \"#utility.yul\":2823:2833   */\n  gt\n    /* \"#utility.yul\":2820:2856   */\n  iszero\n  tag_70\n  jumpi\n    /* \"#utility.yul\":2836:2854   */\n  tag_71\n  tag_32\n  jump\t// in\ntag_71:\n    /* \"#utility.yul\":2820:2856   */\ntag_70:\n    /* \"#utility.yul\":2672:2863   */\n  swap3\n  swap2\n  pop\n  pop\n  jump\t// out\n    /* \"Saving-Bank-Project/contracts/SavingsContract.sol\":441:4768  contract SavingsContract is Ownable, ReentrancyGuard {... */\ntag_19:\n  mload(0x80)\n  mload(0xa0)\n  codecopy(0x00, dataOffset(sub_0), dataSize(sub_0))\n  0x00\n  assignImmutable(\"0xcb3405b89fd6cfe28a3c301003b3eb4e78da8d2dc23d689bd0616bcafff42dc1\")\n  0x00\n  assignImmutable(\"0x2757844bcba802ce24af88f7c8fd3438a9a94d6eea4d1e58913fbc1440605b8d\")\n  return(0x00, dataSize(sub_0))\nstop\n\nsub_0: assembly {\n        /* \"Saving-Bank-Project/contracts/SavingsContract.sol\":441:4768  contract SavingsContract is Ownable, ReentrancyGuard {... */\n      mstore(0x40, 0x80)\n      callvalue\n      dup1\n      iszero\n      tag_1\n      jumpi\n      revert(0x00, 0x00)\n    tag_1:\n      pop\n      jumpi(tag_2, lt(calldatasize, 0x04))\n      shr(0xe0, calldataload(0x00))\n      dup1\n      0x8da5cb5b\n      gt\n      tag_13\n      jumpi\n      dup1\n      0x8da5cb5b\n      eq\n      tag_8\n      jumpi\n      dup1\n      0xb6b55f25\n      eq\n      tag_9\n      jumpi\n      dup1\n      0xceb6e1c6\n      eq\n      tag_10\n      jumpi\n      dup1\n      0xe7d21287\n      eq\n      tag_11\n      jumpi\n      dup1\n      0xf2fde38b\n      eq\n      tag_12\n      jumpi\n      jump(tag_2)\n    tag_13:\n      dup1\n      0x3ccfd60b\n      eq\n      tag_3\n      jumpi\n      dup1\n      0x51ed6a30\n      eq\n      tag_4\n      jumpi\n      dup1\n      0x5c63cacb\n      eq\n      tag_5\n      jumpi\n      dup1\n      0x69ac5721\n      eq\n      tag_6\n      jumpi\n      dup1\n      0x715018a6\n      eq\n      tag_7\n      jumpi\n    tag_2:\n      revert(0x00, 0x00)\n        /* \"Saving-Bank-Project/contracts/SavingsContract.sol\":3653:4765  function withdraw() external nonReentrant {... */\n    tag_3:\n      tag_14\n      tag_15\n      jump\t// in\n    tag_14:\n      stop\n        /* \"Saving-Bank-Project/contracts/SavingsContract.sol\":507:541  IERC20 public immutable stakeToken */\n    tag_4:\n      tag_16\n      tag_17\n      jump\t// in\n    tag_16:\n      mload(0x40)\n      tag_18\n      swap2\n      swap1\n      tag_19\n      jump\t// in\n    tag_18:\n      mload(0x40)\n      dup1\n      swap2\n      sub\n      swap1\n      return\n        /* \"Saving-Bank-Project/contracts/SavingsContract.sol\":1183:1224  mapping(address => Savings) public savers */\n    tag_5:\n      tag_20\n      0x04\n      dup1\n      calldatasize\n      sub\n      dup2\n      add\n      swap1\n      tag_21\n      swap2\n      swap1\n      tag_22\n      jump\t// in\n    tag_21:\n      tag_23\n      jump\t// in\n    tag_20:\n      mload(0x40)\n      tag_24\n      swap4\n      swap3\n      swap2\n      swap1\n      tag_25\n      jump\t// in\n    tag_24:\n      mload(0x40)\n      dup1\n      swap2\n      sub\n      swap1\n      return\n        /* \"Saving-Bank-Project/contracts/SavingsContract.sol\":667:702  uint256 public immutable unlockDate */\n    tag_6:\n      tag_26\n      tag_27\n      jump\t// in\n    tag_26:\n      mload(0x40)\n      tag_28\n      swap2\n      swap1\n      tag_29\n      jump\t// in\n    tag_28:\n      mload(0x40)\n      dup1\n      swap2\n      sub\n      swap1\n      return\n        /* \"@openzeppelin/contracts/access/Ownable.sol\":2293:2394  function renounceOwnership() public virtual onlyOwner {... */\n    tag_7:\n      tag_30\n      tag_31\n      jump\t// in\n    tag_30:\n      stop\n        /* \"@openzeppelin/contracts/access/Ownable.sol\":1638:1723  function owner() public view virtual returns (address) {... */\n    tag_8:\n      tag_32\n      tag_33\n      jump\t// in\n    tag_32:\n      mload(0x40)\n      tag_34\n      swap2\n      swap1\n      tag_35\n      jump\t// in\n    tag_34:\n      mload(0x40)\n      dup1\n      swap2\n      sub\n      swap1\n      return\n        /* \"Saving-Bank-Project/contracts/SavingsContract.sol\":2625:3491  function deposit(uint256 _amount) external nonReentrant {... */\n    tag_9:\n      tag_36\n      0x04\n      dup1\n      calldatasize\n      sub\n      dup2\n      add\n      swap1\n      tag_37\n      swap2\n      swap1\n      tag_38\n      jump\t// in\n    tag_37:\n      tag_39\n      jump\t// in\n    tag_36:\n      stop\n        /* \"Saving-Bank-Project/contracts/SavingsContract.sol\":578:627  uint256 public constant REWARD_RATE_PER_YEAR = 10 */\n    tag_10:\n      tag_40\n      tag_41\n      jump\t// in\n    tag_40:\n      mload(0x40)\n      tag_42\n      swap2\n      swap1\n      tag_29\n      jump\t// in\n    tag_42:\n      mload(0x40)\n      dup1\n      swap2\n      sub\n      swap1\n      return\n        /* \"Saving-Bank-Project/contracts/SavingsContract.sol\":2035:2519  function calculatePendingReward(address _user) public view returns (uint256) {... */\n    tag_11:\n      tag_43\n      0x04\n      dup1\n      calldatasize\n      sub\n      dup2\n      add\n      swap1\n      tag_44\n      swap2\n      swap1\n      tag_22\n      jump\t// in\n    tag_44:\n      tag_45\n      jump\t// in\n    tag_43:\n      mload(0x40)\n      tag_46\n      swap2\n      swap1\n      tag_29\n      jump\t// in\n    tag_46:\n      mload(0x40)\n      dup1\n      swap2\n      sub\n      swap1\n      return\n        /* \"@openzeppelin/contracts/access/Ownable.sol\":2543:2758  function transferOwnership(address newOwner) public virtual onlyOwner {... */\n    tag_12:\n      tag_47\n      0x04\n      dup1\n      calldatasize\n      sub\n      dup2\n      add\n      swap1\n      tag_48\n      swap2\n      swap1\n      tag_22\n      jump\t// in\n    tag_48:\n      tag_49\n      jump\t// in\n    tag_47:\n      stop\n        /* \"Saving-Bank-Project/contracts/SavingsContract.sol\":3653:4765  function withdraw() external nonReentrant {... */\n    tag_15:\n        /* \"@openzeppelin/contracts/utils/ReentrancyGuard.sol\":2500:2521  _nonReentrantBefore() */\n      tag_51\n        /* \"@openzeppelin/contracts/utils/ReentrancyGuard.sol\":2500:2519  _nonReentrantBefore */\n      tag_52\n        /* \"@openzeppelin/contracts/utils/ReentrancyGuard.sol\":2500:2521  _nonReentrantBefore() */\n      jump\t// in\n    tag_51:\n        /* \"Saving-Bank-Project/contracts/SavingsContract.sol\":3823:3833  unlockDate */\n      immutable(\"0xcb3405b89fd6cfe28a3c301003b3eb4e78da8d2dc23d689bd0616bcafff42dc1\")\n        /* \"Saving-Bank-Project/contracts/SavingsContract.sol\":3804:3819  block.timestamp */\n      timestamp\n        /* \"Saving-Bank-Project/contracts/SavingsContract.sol\":3804:3833  block.timestamp >= unlockDate */\n      lt\n      iszero\n        /* \"Saving-Bank-Project/contracts/SavingsContract.sol\":3796:3876  require(block.timestamp >= unlockDate, \"Los fondos aun no pueden ser retirados\") */\n      tag_54\n      jumpi\n      mload(0x40)\n      0x08c379a000000000000000000000000000000000000000000000000000000000\n      dup2\n      mstore\n      0x04\n      add\n      tag_55\n      swap1\n      tag_56\n      jump\t// in\n    tag_55:\n      mload(0x40)\n      dup1\n      swap2\n      sub\n      swap1\n      revert\n    tag_54:\n        /* \"Saving-Bank-Project/contracts/SavingsContract.sol\":3897:3924  Savings storage userSavings */\n      0x00\n        /* \"Saving-Bank-Project/contracts/SavingsContract.sol\":3927:3933  savers */\n      0x02\n        /* \"Saving-Bank-Project/contracts/SavingsContract.sol\":3927:3945  savers[msg.sender] */\n      0x00\n        /* \"Saving-Bank-Project/contracts/SavingsContract.sol\":3934:3944  msg.sender */\n      caller\n        /* \"Saving-Bank-Project/contracts/SavingsContract.sol\":3927:3945  savers[msg.sender] */\n      0xffffffffffffffffffffffffffffffffffffffff\n      and\n      0xffffffffffffffffffffffffffffffffffffffff\n      and\n      dup2\n      mstore\n      0x20\n      add\n      swap1\n      dup2\n      mstore\n      0x20\n      add\n      0x00\n      keccak256\n        /* \"Saving-Bank-Project/contracts/SavingsContract.sol\":3897:3945  Savings storage userSavings = savers[msg.sender] */\n      swap1\n      pop\n        /* \"Saving-Bank-Project/contracts/SavingsContract.sol\":3990:3991  0 */\n      0x00\n        /* \"Saving-Bank-Project/contracts/SavingsContract.sol\":3964:3975  userSavings */\n      dup2\n        /* \"Saving-Bank-Project/contracts/SavingsContract.sol\":3964:3987  userSavings.totalAmount */\n      0x00\n      add\n      sload\n        /* \"Saving-Bank-Project/contracts/SavingsContract.sol\":3964:3991  userSavings.totalAmount > 0 */\n      gt\n        /* \"Saving-Bank-Project/contracts/SavingsContract.sol\":3956:4025  require(userSavings.totalAmount > 0, \"No tienes fondos para retirar\") */\n      tag_57\n      jumpi\n      mload(0x40)\n      0x08c379a000000000000000000000000000000000000000000000000000000000\n      dup2\n      mstore\n      0x04\n      add\n      tag_58\n      swap1\n      tag_59\n      jump\t// in\n    tag_58:\n      mload(0x40)\n      dup1\n      swap2\n      sub\n      swap1\n      revert\n    tag_57:\n        /* \"Saving-Bank-Project/contracts/SavingsContract.sol\":4120:4139  uint256 finalReward */\n      0x00\n        /* \"Saving-Bank-Project/contracts/SavingsContract.sol\":4142:4176  calculatePendingReward(msg.sender) */\n      tag_60\n        /* \"Saving-Bank-Project/contracts/SavingsContract.sol\":4165:4175  msg.sender */\n      caller\n        /* \"Saving-Bank-Project/contracts/SavingsContract.sol\":4142:4164  calculatePendingReward */\n      tag_45\n        /* \"Saving-Bank-Project/contracts/SavingsContract.sol\":4142:4176  calculatePendingReward(msg.sender) */\n      jump\t// in\n    tag_60:\n        /* \"Saving-Bank-Project/contracts/SavingsContract.sol\":4120:4176  uint256 finalReward = calculatePendingReward(msg.sender) */\n      swap1\n      pop\n        /* \"Saving-Bank-Project/contracts/SavingsContract.sol\":4187:4206  uint256 totalReward */\n      0x00\n        /* \"Saving-Bank-Project/contracts/SavingsContract.sol\":4241:4252  finalReward */\n      dup2\n        /* \"Saving-Bank-Project/contracts/SavingsContract.sol\":4209:4220  userSavings */\n      dup4\n        /* \"Saving-Bank-Project/contracts/SavingsContract.sol\":4209:4238  userSavings.accumulatedReward */\n      0x01\n      add\n      sload\n        /* \"Saving-Bank-Project/contracts/SavingsContract.sol\":4209:4252  userSavings.accumulatedReward + finalReward */\n      tag_61\n      swap2\n      swap1\n      tag_62\n      jump\t// in\n    tag_61:\n        /* \"Saving-Bank-Project/contracts/SavingsContract.sol\":4187:4252  uint256 totalReward = userSavings.accumulatedReward + finalReward */\n      swap1\n      pop\n        /* \"Saving-Bank-Project/contracts/SavingsContract.sol\":4263:4283  uint256 totalBalance */\n      0x00\n        /* \"Saving-Bank-Project/contracts/SavingsContract.sol\":4312:4323  totalReward */\n      dup2\n        /* \"Saving-Bank-Project/contracts/SavingsContract.sol\":4286:4297  userSavings */\n      dup5\n        /* \"Saving-Bank-Project/contracts/SavingsContract.sol\":4286:4309  userSavings.totalAmount */\n      0x00\n      add\n      sload\n        /* \"Saving-Bank-Project/contracts/SavingsContract.sol\":4286:4323  userSavings.totalAmount + totalReward */\n      tag_63\n      swap2\n      swap1\n      tag_62\n      jump\t// in\n    tag_63:\n        /* \"Saving-Bank-Project/contracts/SavingsContract.sol\":4263:4323  uint256 totalBalance = userSavings.totalAmount + totalReward */\n      swap1\n      pop\n        /* \"Saving-Bank-Project/contracts/SavingsContract.sol\":4429:4435  savers */\n      0x02\n        /* \"Saving-Bank-Project/contracts/SavingsContract.sol\":4429:4447  savers[msg.sender] */\n      0x00\n        /* \"Saving-Bank-Project/contracts/SavingsContract.sol\":4436:4446  msg.sender */\n      caller\n        /* \"Saving-Bank-Project/contracts/SavingsContract.sol\":4429:4447  savers[msg.sender] */\n      0xffffffffffffffffffffffffffffffffffffffff\n      and\n      0xffffffffffffffffffffffffffffffffffffffff\n      and\n      dup2\n      mstore\n      0x20\n      add\n      swap1\n      dup2\n      mstore\n      0x20\n      add\n      0x00\n      keccak256\n      0x00\n        /* \"Saving-Bank-Project/contracts/SavingsContract.sol\":4422:4447  delete savers[msg.sender] */\n      0x00\n      dup3\n      add\n      0x00\n      swap1\n      sstore\n      0x01\n      dup3\n      add\n      0x00\n      swap1\n      sstore\n      0x02\n      dup3\n      add\n      0x00\n      swap1\n      sstore\n      pop\n      pop\n        /* \"Saving-Bank-Project/contracts/SavingsContract.sol\":4549:4561  bool success */\n      0x00\n        /* \"Saving-Bank-Project/contracts/SavingsContract.sol\":4564:4574  stakeToken */\n      immutable(\"0x2757844bcba802ce24af88f7c8fd3438a9a94d6eea4d1e58913fbc1440605b8d\")\n        /* \"Saving-Bank-Project/contracts/SavingsContract.sol\":4564:4583  stakeToken.transfer */\n      0xffffffffffffffffffffffffffffffffffffffff\n      and\n      0xa9059cbb\n        /* \"Saving-Bank-Project/contracts/SavingsContract.sol\":4584:4594  msg.sender */\n      caller\n        /* \"Saving-Bank-Project/contracts/SavingsContract.sol\":4596:4608  totalBalance */\n      dup5\n        /* \"Saving-Bank-Project/contracts/SavingsContract.sol\":4564:4609  stakeToken.transfer(msg.sender, totalBalance) */\n      mload(0x40)\n      dup4\n      0xffffffff\n      and\n      0xe0\n      shl\n      dup2\n      mstore\n      0x04\n      add\n      tag_64\n      swap3\n      swap2\n      swap1\n      tag_65\n      jump\t// in\n    tag_64:\n      0x20\n      mload(0x40)\n      dup1\n      dup4\n      sub\n      dup2\n      0x00\n      dup8\n      gas\n      call\n      iszero\n      dup1\n      iszero\n      tag_67\n      jumpi\n      returndatacopy(0x00, 0x00, returndatasize)\n      revert(0x00, returndatasize)\n    tag_67:\n      pop\n      pop\n      pop\n      pop\n      mload(0x40)\n      returndatasize\n      not(0x1f)\n      0x1f\n      dup3\n      add\n      and\n      dup3\n      add\n      dup1\n      0x40\n      mstore\n      pop\n      dup2\n      add\n      swap1\n      tag_68\n      swap2\n      swap1\n      tag_69\n      jump\t// in\n    tag_68:\n        /* \"Saving-Bank-Project/contracts/SavingsContract.sol\":4549:4609  bool success = stakeToken.transfer(msg.sender, totalBalance) */\n      swap1\n      pop\n        /* \"Saving-Bank-Project/contracts/SavingsContract.sol\":4628:4635  success */\n      dup1\n        /* \"Saving-Bank-Project/contracts/SavingsContract.sol\":4620:4672  require(success, \"La transferencia de retiro fallo\") */\n      tag_70\n      jumpi\n      mload(0x40)\n      0x08c379a000000000000000000000000000000000000000000000000000000000\n      dup2\n      mstore\n      0x04\n      add\n      tag_71\n      swap1\n      tag_72\n      jump\t// in\n    tag_71:\n      mload(0x40)\n      dup1\n      swap2\n      sub\n      swap1\n      revert\n    tag_70:\n        /* \"Saving-Bank-Project/contracts/SavingsContract.sol\":4708:4718  msg.sender */\n      caller\n        /* \"Saving-Bank-Project/contracts/SavingsContract.sol\":4698:4757  Withdrawn(msg.sender, userSavings.totalAmount, totalReward) */\n      0xffffffffffffffffffffffffffffffffffffffff\n      and\n      0x92ccf450a286a957af52509bc1c9939d1a6a481783e142e41e2499f0bb66ebc6\n        /* \"Saving-Bank-Project/contracts/SavingsContract.sol\":4720:4731  userSavings */\n      dup7\n        /* \"Saving-Bank-Project/contracts/SavingsContract.sol\":4720:4743  userSavings.totalAmount */\n      0x00\n      add\n      sload\n        /* \"Saving-Bank-Project/contracts/SavingsContract.sol\":4745:4756  totalReward */\n      dup6\n        /* \"Saving-Bank-Project/contracts/SavingsContract.sol\":4698:4757  Withdrawn(msg.sender, userSavings.totalAmount, totalReward) */\n      mload(0x40)\n      tag_73\n      swap3\n      swap2\n      swap1\n      tag_74\n      jump\t// in\n    tag_73:\n      mload(0x40)\n      dup1\n      swap2\n      sub\n      swap1\n      log2\n        /* \"Saving-Bank-Project/contracts/SavingsContract.sol\":3695:4765  {... */\n      pop\n      pop\n      pop\n      pop\n      pop\n        /* \"@openzeppelin/contracts/utils/ReentrancyGuard.sol\":2542:2562  _nonReentrantAfter() */\n      tag_75\n        /* \"@openzeppelin/contracts/utils/ReentrancyGuard.sol\":2542:2560  _nonReentrantAfter */\n      tag_76\n        /* \"@openzeppelin/contracts/utils/ReentrancyGuard.sol\":2542:2562  _nonReentrantAfter() */\n      jump\t// in\n    tag_75:\n        /* \"Saving-Bank-Project/contracts/SavingsContract.sol\":3653:4765  function withdraw() external nonReentrant {... */\n      jump\t// out\n        /* \"Saving-Bank-Project/contracts/SavingsContract.sol\":507:541  IERC20 public immutable stakeToken */\n    tag_17:\n      immutable(\"0x2757844bcba802ce24af88f7c8fd3438a9a94d6eea4d1e58913fbc1440605b8d\")\n      dup2\n      jump\t// out\n        /* \"Saving-Bank-Project/contracts/SavingsContract.sol\":1183:1224  mapping(address => Savings) public savers */\n    tag_23:\n      mstore(0x20, 0x02)\n      dup1\n      0x00\n      mstore\n      keccak256(0x00, 0x40)\n      0x00\n      swap2\n      pop\n      swap1\n      pop\n      dup1\n      0x00\n      add\n      sload\n      swap1\n      dup1\n      0x01\n      add\n      sload\n      swap1\n      dup1\n      0x02\n      add\n      sload\n      swap1\n      pop\n      dup4\n      jump\t// out\n        /* \"Saving-Bank-Project/contracts/SavingsContract.sol\":667:702  uint256 public immutable unlockDate */\n    tag_27:\n      immutable(\"0xcb3405b89fd6cfe28a3c301003b3eb4e78da8d2dc23d689bd0616bcafff42dc1\")\n      dup2\n      jump\t// out\n        /* \"@openzeppelin/contracts/access/Ownable.sol\":2293:2394  function renounceOwnership() public virtual onlyOwner {... */\n    tag_31:\n        /* \"@openzeppelin/contracts/access/Ownable.sol\":1531:1544  _checkOwner() */\n      tag_78\n        /* \"@openzeppelin/contracts/access/Ownable.sol\":1531:1542  _checkOwner */\n      tag_79\n        /* \"@openzeppelin/contracts/access/Ownable.sol\":1531:1544  _checkOwner() */\n      jump\t// in\n    tag_78:\n        /* \"@openzeppelin/contracts/access/Ownable.sol\":2357:2387  _transferOwnership(address(0)) */\n      tag_81\n        /* \"@openzeppelin/contracts/access/Ownable.sol\":2384:2385  0 */\n      0x00\n        /* \"@openzeppelin/contracts/access/Ownable.sol\":2357:2375  _transferOwnership */\n      tag_82\n        /* \"@openzeppelin/contracts/access/Ownable.sol\":2357:2387  _transferOwnership(address(0)) */\n      jump\t// in\n    tag_81:\n        /* \"@openzeppelin/contracts/access/Ownable.sol\":2293:2394  function renounceOwnership() public virtual onlyOwner {... */\n      jump\t// out\n        /* \"@openzeppelin/contracts/access/Ownable.sol\":1638:1723  function owner() public view virtual returns (address) {... */\n    tag_33:\n        /* \"@openzeppelin/contracts/access/Ownable.sol\":1684:1691  address */\n      0x00\n        /* \"@openzeppelin/contracts/access/Ownable.sol\":1710:1716  _owner */\n      0x00\n      0x00\n      swap1\n      sload\n      swap1\n      0x0100\n      exp\n      swap1\n      div\n      0xffffffffffffffffffffffffffffffffffffffff\n      and\n        /* \"@openzeppelin/contracts/access/Ownable.sol\":1703:1716  return _owner */\n      swap1\n      pop\n        /* \"@openzeppelin/contracts/access/Ownable.sol\":1638:1723  function owner() public view virtual returns (address) {... */\n      swap1\n      jump\t// out\n        /* \"Saving-Bank-Project/contracts/SavingsContract.sol\":2625:3491  function deposit(uint256 _amount) external nonReentrant {... */\n    tag_39:\n        /* \"@openzeppelin/contracts/utils/ReentrancyGuard.sol\":2500:2521  _nonReentrantBefore() */\n      tag_85\n        /* \"@openzeppelin/contracts/utils/ReentrancyGuard.sol\":2500:2519  _nonReentrantBefore */\n      tag_52\n        /* \"@openzeppelin/contracts/utils/ReentrancyGuard.sol\":2500:2521  _nonReentrantBefore() */\n      jump\t// in\n    tag_85:\n        /* \"Saving-Bank-Project/contracts/SavingsContract.sol\":2710:2711  0 */\n      0x00\n        /* \"Saving-Bank-Project/contracts/SavingsContract.sol\":2700:2707  _amount */\n      dup2\n        /* \"Saving-Bank-Project/contracts/SavingsContract.sol\":2700:2711  _amount > 0 */\n      gt\n        /* \"Saving-Bank-Project/contracts/SavingsContract.sol\":2692:2749  require(_amount > 0, \"La cantidad debe ser mayor a cero\") */\n      tag_87\n      jumpi\n      mload(0x40)\n      0x08c379a000000000000000000000000000000000000000000000000000000000\n      dup2\n      mstore\n      0x04\n      add\n      tag_88\n      swap1\n      tag_89\n      jump\t// in\n    tag_88:\n      mload(0x40)\n      dup1\n      swap2\n      sub\n      swap1\n      revert\n    tag_87:\n        /* \"Saving-Bank-Project/contracts/SavingsContract.sol\":2762:2789  Savings storage userSavings */\n      0x00\n        /* \"Saving-Bank-Project/contracts/SavingsContract.sol\":2792:2798  savers */\n      0x02\n        /* \"Saving-Bank-Project/contracts/SavingsContract.sol\":2792:2810  savers[msg.sender] */\n      0x00\n        /* \"Saving-Bank-Project/contracts/SavingsContract.sol\":2799:2809  msg.sender */\n      caller\n        /* \"Saving-Bank-Project/contracts/SavingsContract.sol\":2792:2810  savers[msg.sender] */\n      0xffffffffffffffffffffffffffffffffffffffff\n      and\n      0xffffffffffffffffffffffffffffffffffffffff\n      and\n      dup2\n      mstore\n      0x20\n      add\n      swap1\n      dup2\n      mstore\n      0x20\n      add\n      0x00\n      keccak256\n        /* \"Saving-Bank-Project/contracts/SavingsContract.sol\":2762:2810  Savings storage userSavings = savers[msg.sender] */\n      swap1\n      pop\n        /* \"Saving-Bank-Project/contracts/SavingsContract.sol\":2907:2928  uint256 pendingReward */\n      0x00\n        /* \"Saving-Bank-Project/contracts/SavingsContract.sol\":2931:2965  calculatePendingReward(msg.sender) */\n      tag_90\n        /* \"Saving-Bank-Project/contracts/SavingsContract.sol\":2954:2964  msg.sender */\n      caller\n        /* \"Saving-Bank-Project/contracts/SavingsContract.sol\":2931:2953  calculatePendingReward */\n      tag_45\n        /* \"Saving-Bank-Project/contracts/SavingsContract.sol\":2931:2965  calculatePendingReward(msg.sender) */\n      jump\t// in\n    tag_90:\n        /* \"Saving-Bank-Project/contracts/SavingsContract.sol\":2907:2965  uint256 pendingReward = calculatePendingReward(msg.sender) */\n      swap1\n      pop\n        /* \"Saving-Bank-Project/contracts/SavingsContract.sol\":3009:3022  pendingReward */\n      dup1\n        /* \"Saving-Bank-Project/contracts/SavingsContract.sol\":2976:2987  userSavings */\n      dup3\n        /* \"Saving-Bank-Project/contracts/SavingsContract.sol\":2976:3005  userSavings.accumulatedReward */\n      0x01\n      add\n      0x00\n        /* \"Saving-Bank-Project/contracts/SavingsContract.sol\":2976:3022  userSavings.accumulatedReward += pendingReward */\n      dup3\n      dup3\n      sload\n      tag_91\n      swap2\n      swap1\n      tag_62\n      jump\t// in\n    tag_91:\n      swap3\n      pop\n      pop\n      dup2\n      swap1\n      sstore\n      pop\n        /* \"Saving-Bank-Project/contracts/SavingsContract.sol\":3114:3126  bool success */\n      0x00\n        /* \"Saving-Bank-Project/contracts/SavingsContract.sol\":3129:3139  stakeToken */\n      immutable(\"0x2757844bcba802ce24af88f7c8fd3438a9a94d6eea4d1e58913fbc1440605b8d\")\n        /* \"Saving-Bank-Project/contracts/SavingsContract.sol\":3129:3152  stakeToken.transferFrom */\n      0xffffffffffffffffffffffffffffffffffffffff\n      and\n      0x23b872dd\n        /* \"Saving-Bank-Project/contracts/SavingsContract.sol\":3153:3163  msg.sender */\n      caller\n        /* \"Saving-Bank-Project/contracts/SavingsContract.sol\":3173:3177  this */\n      address\n        /* \"Saving-Bank-Project/contracts/SavingsContract.sol\":3180:3187  _amount */\n      dup8\n        /* \"Saving-Bank-Project/contracts/SavingsContract.sol\":3129:3188  stakeToken.transferFrom(msg.sender, address(this), _amount) */\n      mload(0x40)\n      dup5\n      0xffffffff\n      and\n      0xe0\n      shl\n      dup2\n      mstore\n      0x04\n      add\n      tag_92\n      swap4\n      swap3\n      swap2\n      swap1\n      tag_93\n      jump\t// in\n    tag_92:\n      0x20\n      mload(0x40)\n      dup1\n      dup4\n      sub\n      dup2\n      0x00\n      dup8\n      gas\n      call\n      iszero\n      dup1\n      iszero\n      tag_95\n      jumpi\n      returndatacopy(0x00, 0x00, returndatasize)\n      revert(0x00, returndatasize)\n    tag_95:\n      pop\n      pop\n      pop\n      pop\n      mload(0x40)\n      returndatasize\n      not(0x1f)\n      0x1f\n      dup3\n      add\n      and\n      dup3\n      add\n      dup1\n      0x40\n      mstore\n      pop\n      dup2\n      add\n      swap1\n      tag_96\n      swap2\n      swap1\n      tag_69\n      jump\t// in\n    tag_96:\n        /* \"Saving-Bank-Project/contracts/SavingsContract.sol\":3114:3188  bool success = stakeToken.transferFrom(msg.sender, address(this), _amount) */\n      swap1\n      pop\n        /* \"Saving-Bank-Project/contracts/SavingsContract.sol\":3207:3214  success */\n      dup1\n        /* \"Saving-Bank-Project/contracts/SavingsContract.sol\":3199:3251  require(success, \"La transferencia de tokens fallo\") */\n      tag_97\n      jumpi\n      mload(0x40)\n      0x08c379a000000000000000000000000000000000000000000000000000000000\n      dup2\n      mstore\n      0x04\n      add\n      tag_98\n      swap1\n      tag_99\n      jump\t// in\n    tag_98:\n      mload(0x40)\n      dup1\n      swap2\n      sub\n      swap1\n      revert\n    tag_97:\n        /* \"Saving-Bank-Project/contracts/SavingsContract.sol\":3365:3372  _amount */\n      dup4\n        /* \"Saving-Bank-Project/contracts/SavingsContract.sol\":3338:3349  userSavings */\n      dup4\n        /* \"Saving-Bank-Project/contracts/SavingsContract.sol\":3338:3361  userSavings.totalAmount */\n      0x00\n      add\n      0x00\n        /* \"Saving-Bank-Project/contracts/SavingsContract.sol\":3338:3372  userSavings.totalAmount += _amount */\n      dup3\n      dup3\n      sload\n      tag_100\n      swap2\n      swap1\n      tag_62\n      jump\t// in\n    tag_100:\n      swap3\n      pop\n      pop\n      dup2\n      swap1\n      sstore\n      pop\n        /* \"Saving-Bank-Project/contracts/SavingsContract.sol\":3412:3427  block.timestamp */\n      timestamp\n        /* \"Saving-Bank-Project/contracts/SavingsContract.sol\":3383:3394  userSavings */\n      dup4\n        /* \"Saving-Bank-Project/contracts/SavingsContract.sol\":3383:3409  userSavings.lastUpdateTime */\n      0x02\n      add\n        /* \"Saving-Bank-Project/contracts/SavingsContract.sol\":3383:3427  userSavings.lastUpdateTime = block.timestamp */\n      dup2\n      swap1\n      sstore\n      pop\n        /* \"Saving-Bank-Project/contracts/SavingsContract.sol\":3463:3473  msg.sender */\n      caller\n        /* \"Saving-Bank-Project/contracts/SavingsContract.sol\":3453:3483  Deposited(msg.sender, _amount) */\n      0xffffffffffffffffffffffffffffffffffffffff\n      and\n      0x2da466a7b24304f47e87fa2e1e5a81b9831ce54fec19055ce277ca2f39ba42c4\n        /* \"Saving-Bank-Project/contracts/SavingsContract.sol\":3475:3482  _amount */\n      dup6\n        /* \"Saving-Bank-Project/contracts/SavingsContract.sol\":3453:3483  Deposited(msg.sender, _amount) */\n      mload(0x40)\n      tag_101\n      swap2\n      swap1\n      tag_29\n      jump\t// in\n    tag_101:\n      mload(0x40)\n      dup1\n      swap2\n      sub\n      swap1\n      log2\n        /* \"Saving-Bank-Project/contracts/SavingsContract.sol\":2681:3491  {... */\n      pop\n      pop\n      pop\n        /* \"@openzeppelin/contracts/utils/ReentrancyGuard.sol\":2542:2562  _nonReentrantAfter() */\n      tag_102\n        /* \"@openzeppelin/contracts/utils/ReentrancyGuard.sol\":2542:2560  _nonReentrantAfter */\n      tag_76\n        /* \"@openzeppelin/contracts/utils/ReentrancyGuard.sol\":2542:2562  _nonReentrantAfter() */\n      jump\t// in\n    tag_102:\n        /* \"Saving-Bank-Project/contracts/SavingsContract.sol\":2625:3491  function deposit(uint256 _amount) external nonReentrant {... */\n      pop\n      jump\t// out\n        /* \"Saving-Bank-Project/contracts/SavingsContract.sol\":578:627  uint256 public constant REWARD_RATE_PER_YEAR = 10 */\n    tag_41:\n        /* \"Saving-Bank-Project/contracts/SavingsContract.sol\":625:627  10 */\n      0x0a\n        /* \"Saving-Bank-Project/contracts/SavingsContract.sol\":578:627  uint256 public constant REWARD_RATE_PER_YEAR = 10 */\n      dup2\n      jump\t// out\n        /* \"Saving-Bank-Project/contracts/SavingsContract.sol\":2035:2519  function calculatePendingReward(address _user) public view returns (uint256) {... */\n    tag_45:\n        /* \"Saving-Bank-Project/contracts/SavingsContract.sol\":2103:2110  uint256 */\n      0x00\n        /* \"Saving-Bank-Project/contracts/SavingsContract.sol\":2123:2150  Savings storage userSavings */\n      0x00\n        /* \"Saving-Bank-Project/contracts/SavingsContract.sol\":2153:2159  savers */\n      0x02\n        /* \"Saving-Bank-Project/contracts/SavingsContract.sol\":2153:2166  savers[_user] */\n      0x00\n        /* \"Saving-Bank-Project/contracts/SavingsContract.sol\":2160:2165  _user */\n      dup5\n        /* \"Saving-Bank-Project/contracts/SavingsContract.sol\":2153:2166  savers[_user] */\n      0xffffffffffffffffffffffffffffffffffffffff\n      and\n      0xffffffffffffffffffffffffffffffffffffffff\n      and\n      dup2\n      mstore\n      0x20\n      add\n      swap1\n      dup2\n      mstore\n      0x20\n      add\n      0x00\n      keccak256\n        /* \"Saving-Bank-Project/contracts/SavingsContract.sol\":2123:2166  Savings storage userSavings = savers[_user] */\n      swap1\n      pop\n        /* \"Saving-Bank-Project/contracts/SavingsContract.sol\":2208:2209  0 */\n      0x00\n        /* \"Saving-Bank-Project/contracts/SavingsContract.sol\":2181:2192  userSavings */\n      dup2\n        /* \"Saving-Bank-Project/contracts/SavingsContract.sol\":2181:2204  userSavings.totalAmount */\n      0x00\n      add\n      sload\n        /* \"Saving-Bank-Project/contracts/SavingsContract.sol\":2181:2209  userSavings.totalAmount == 0 */\n      sub\n        /* \"Saving-Bank-Project/contracts/SavingsContract.sol\":2177:2246  if (userSavings.totalAmount == 0) {... */\n      tag_104\n      jumpi\n        /* \"Saving-Bank-Project/contracts/SavingsContract.sol\":2233:2234  0 */\n      0x00\n        /* \"Saving-Bank-Project/contracts/SavingsContract.sol\":2226:2234  return 0 */\n      swap2\n      pop\n      pop\n      jump(tag_103)\n        /* \"Saving-Bank-Project/contracts/SavingsContract.sol\":2177:2246  if (userSavings.totalAmount == 0) {... */\n    tag_104:\n        /* \"Saving-Bank-Project/contracts/SavingsContract.sol\":2266:2285  uint256 timeElapsed */\n      0x00\n        /* \"Saving-Bank-Project/contracts/SavingsContract.sol\":2306:2317  userSavings */\n      dup2\n        /* \"Saving-Bank-Project/contracts/SavingsContract.sol\":2306:2332  userSavings.lastUpdateTime */\n      0x02\n      add\n      sload\n        /* \"Saving-Bank-Project/contracts/SavingsContract.sol\":2288:2303  block.timestamp */\n      timestamp\n        /* \"Saving-Bank-Project/contracts/SavingsContract.sol\":2288:2332  block.timestamp - userSavings.lastUpdateTime */\n      tag_105\n      swap2\n      swap1\n      tag_106\n      jump\t// in\n    tag_105:\n        /* \"Saving-Bank-Project/contracts/SavingsContract.sol\":2266:2332  uint256 timeElapsed = block.timestamp - userSavings.lastUpdateTime */\n      swap1\n      pop\n        /* \"Saving-Bank-Project/contracts/SavingsContract.sol\":2496:2510  365 days * 100 */\n      0xbbf81e00\n        /* \"Saving-Bank-Project/contracts/SavingsContract.sol\":2480:2491  timeElapsed */\n      dup2\n        /* \"Saving-Bank-Project/contracts/SavingsContract.sol\":625:627  10 */\n      0x0a\n        /* \"Saving-Bank-Project/contracts/SavingsContract.sol\":2431:2442  userSavings */\n      dup5\n        /* \"Saving-Bank-Project/contracts/SavingsContract.sol\":2431:2454  userSavings.totalAmount */\n      0x00\n      add\n      sload\n        /* \"Saving-Bank-Project/contracts/SavingsContract.sol\":2431:2477  userSavings.totalAmount * REWARD_RATE_PER_YEAR */\n      tag_107\n      swap2\n      swap1\n      tag_108\n      jump\t// in\n    tag_107:\n        /* \"Saving-Bank-Project/contracts/SavingsContract.sol\":2431:2491  userSavings.totalAmount * REWARD_RATE_PER_YEAR * timeElapsed */\n      tag_109\n      swap2\n      swap1\n      tag_108\n      jump\t// in\n    tag_109:\n        /* \"Saving-Bank-Project/contracts/SavingsContract.sol\":2430:2511  (userSavings.totalAmount * REWARD_RATE_PER_YEAR * timeElapsed) / (365 days * 100) */\n      tag_110\n      swap2\n      swap1\n      tag_111\n      jump\t// in\n    tag_110:\n        /* \"Saving-Bank-Project/contracts/SavingsContract.sol\":2423:2511  return (userSavings.totalAmount * REWARD_RATE_PER_YEAR * timeElapsed) / (365 days * 100) */\n      swap3\n      pop\n      pop\n      pop\n        /* \"Saving-Bank-Project/contracts/SavingsContract.sol\":2035:2519  function calculatePendingReward(address _user) public view returns (uint256) {... */\n    tag_103:\n      swap2\n      swap1\n      pop\n      jump\t// out\n        /* \"@openzeppelin/contracts/access/Ownable.sol\":2543:2758  function transferOwnership(address newOwner) public virtual onlyOwner {... */\n    tag_49:\n        /* \"@openzeppelin/contracts/access/Ownable.sol\":1531:1544  _checkOwner() */\n      tag_113\n        /* \"@openzeppelin/contracts/access/Ownable.sol\":1531:1542  _checkOwner */\n      tag_79\n        /* \"@openzeppelin/contracts/access/Ownable.sol\":1531:1544  _checkOwner() */\n      jump\t// in\n    tag_113:\n        /* \"@openzeppelin/contracts/access/Ownable.sol\":2647:2648  0 */\n      0x00\n        /* \"@openzeppelin/contracts/access/Ownable.sol\":2627:2649  newOwner == address(0) */\n      0xffffffffffffffffffffffffffffffffffffffff\n      and\n        /* \"@openzeppelin/contracts/access/Ownable.sol\":2627:2635  newOwner */\n      dup2\n        /* \"@openzeppelin/contracts/access/Ownable.sol\":2627:2649  newOwner == address(0) */\n      0xffffffffffffffffffffffffffffffffffffffff\n      and\n      sub\n        /* \"@openzeppelin/contracts/access/Ownable.sol\":2623:2714  if (newOwner == address(0)) {... */\n      tag_115\n      jumpi\n        /* \"@openzeppelin/contracts/access/Ownable.sol\":2700:2701  0 */\n      0x00\n        /* \"@openzeppelin/contracts/access/Ownable.sol\":2672:2703  OwnableInvalidOwner(address(0)) */\n      mload(0x40)\n      0x1e4fbdf700000000000000000000000000000000000000000000000000000000\n      dup2\n      mstore\n      0x04\n      add\n      tag_116\n      swap2\n      swap1\n      tag_35\n      jump\t// in\n    tag_116:\n      mload(0x40)\n      dup1\n      swap2\n      sub\n      swap1\n      revert\n        /* \"@openzeppelin/contracts/access/Ownable.sol\":2623:2714  if (newOwner == address(0)) {... */\n    tag_115:\n        /* \"@openzeppelin/contracts/access/Ownable.sol\":2723:2751  _transferOwnership(newOwner) */\n      tag_117\n        /* \"@openzeppelin/contracts/access/Ownable.sol\":2742:2750  newOwner */\n      dup2\n        /* \"@openzeppelin/contracts/access/Ownable.sol\":2723:2741  _transferOwnership */\n      tag_82\n        /* \"@openzeppelin/contracts/access/Ownable.sol\":2723:2751  _transferOwnership(newOwner) */\n      jump\t// in\n    tag_117:\n        /* \"@openzeppelin/contracts/access/Ownable.sol\":2543:2758  function transferOwnership(address newOwner) public virtual onlyOwner {... */\n      pop\n      jump\t// out\n        /* \"@openzeppelin/contracts/utils/ReentrancyGuard.sol\":2575:2882  function _nonReentrantBefore() private {... */\n    tag_52:\n        /* \"@openzeppelin/contracts/utils/ReentrancyGuard.sol\":1899:1900  2 */\n      0x02\n        /* \"@openzeppelin/contracts/utils/ReentrancyGuard.sol\":2702:2709  _status */\n      sload(0x01)\n        /* \"@openzeppelin/contracts/utils/ReentrancyGuard.sol\":2702:2720  _status == ENTERED */\n      sub\n        /* \"@openzeppelin/contracts/utils/ReentrancyGuard.sol\":2698:2784  if (_status == ENTERED) {... */\n      tag_119\n      jumpi\n        /* \"@openzeppelin/contracts/utils/ReentrancyGuard.sol\":2743:2773  ReentrancyGuardReentrantCall() */\n      mload(0x40)\n      0x3ee5aeb500000000000000000000000000000000000000000000000000000000\n      dup2\n      mstore\n      0x04\n      add\n      mload(0x40)\n      dup1\n      swap2\n      sub\n      swap1\n      revert\n        /* \"@openzeppelin/contracts/utils/ReentrancyGuard.sol\":2698:2784  if (_status == ENTERED) {... */\n    tag_119:\n        /* \"@openzeppelin/contracts/utils/ReentrancyGuard.sol\":1899:1900  2 */\n      0x02\n        /* \"@openzeppelin/contracts/utils/ReentrancyGuard.sol\":2858:2865  _status */\n      0x01\n        /* \"@openzeppelin/contracts/utils/ReentrancyGuard.sol\":2858:2875  _status = ENTERED */\n      dup2\n      swap1\n      sstore\n      pop\n        /* \"@openzeppelin/contracts/utils/ReentrancyGuard.sol\":2575:2882  function _nonReentrantBefore() private {... */\n      jump\t// out\n        /* \"@openzeppelin/contracts/utils/ReentrancyGuard.sol\":2888:3096  function _nonReentrantAfter() private {... */\n    tag_76:\n        /* \"@openzeppelin/contracts/utils/ReentrancyGuard.sol\":1857:1858  1 */\n      0x01\n        /* \"@openzeppelin/contracts/utils/ReentrancyGuard.sol\":3068:3075  _status */\n      dup1\n        /* \"@openzeppelin/contracts/utils/ReentrancyGuard.sol\":3068:3089  _status = NOT_ENTERED */\n      dup2\n      swap1\n      sstore\n      pop\n        /* \"@openzeppelin/contracts/utils/ReentrancyGuard.sol\":2888:3096  function _nonReentrantAfter() private {... */\n      jump\t// out\n        /* \"@openzeppelin/contracts/access/Ownable.sol\":1796:1958  function _checkOwner() internal view virtual {... */\n    tag_79:\n        /* \"@openzeppelin/contracts/access/Ownable.sol\":1866:1878  _msgSender() */\n      tag_122\n        /* \"@openzeppelin/contracts/access/Ownable.sol\":1866:1876  _msgSender */\n      tag_123\n        /* \"@openzeppelin/contracts/access/Ownable.sol\":1866:1878  _msgSender() */\n      jump\t// in\n    tag_122:\n        /* \"@openzeppelin/contracts/access/Ownable.sol\":1855:1878  owner() != _msgSender() */\n      0xffffffffffffffffffffffffffffffffffffffff\n      and\n        /* \"@openzeppelin/contracts/access/Ownable.sol\":1855:1862  owner() */\n      tag_124\n        /* \"@openzeppelin/contracts/access/Ownable.sol\":1855:1860  owner */\n      tag_33\n        /* \"@openzeppelin/contracts/access/Ownable.sol\":1855:1862  owner() */\n      jump\t// in\n    tag_124:\n        /* \"@openzeppelin/contracts/access/Ownable.sol\":1855:1878  owner() != _msgSender() */\n      0xffffffffffffffffffffffffffffffffffffffff\n      and\n      eq\n        /* \"@openzeppelin/contracts/access/Ownable.sol\":1851:1952  if (owner() != _msgSender()) {... */\n      tag_125\n      jumpi\n        /* \"@openzeppelin/contracts/access/Ownable.sol\":1928:1940  _msgSender() */\n      tag_126\n        /* \"@openzeppelin/contracts/access/Ownable.sol\":1928:1938  _msgSender */\n      tag_123\n        /* \"@openzeppelin/contracts/access/Ownable.sol\":1928:1940  _msgSender() */\n      jump\t// in\n    tag_126:\n        /* \"@openzeppelin/contracts/access/Ownable.sol\":1901:1941  OwnableUnauthorizedAccount(_msgSender()) */\n      mload(0x40)\n      0x118cdaa700000000000000000000000000000000000000000000000000000000\n      dup2\n      mstore\n      0x04\n      add\n      tag_127\n      swap2\n      swap1\n      tag_35\n      jump\t// in\n    tag_127:\n      mload(0x40)\n      dup1\n      swap2\n      sub\n      swap1\n      revert\n        /* \"@openzeppelin/contracts/access/Ownable.sol\":1851:1952  if (owner() != _msgSender()) {... */\n    tag_125:\n        /* \"@openzeppelin/contracts/access/Ownable.sol\":1796:1958  function _checkOwner() internal view virtual {... */\n      jump\t// out\n        /* \"@openzeppelin/contracts/access/Ownable.sol\":2912:3099  function _transferOwnership(address newOwner) internal virtual {... */\n    tag_82:\n        /* \"@openzeppelin/contracts/access/Ownable.sol\":2985:3001  address oldOwner */\n      0x00\n        /* \"@openzeppelin/contracts/access/Ownable.sol\":3004:3010  _owner */\n      0x00\n      0x00\n      swap1\n      sload\n      swap1\n      0x0100\n      exp\n      swap1\n      div\n      0xffffffffffffffffffffffffffffffffffffffff\n      and\n        /* \"@openzeppelin/contracts/access/Ownable.sol\":2985:3010  address oldOwner = _owner */\n      swap1\n      pop\n        /* \"@openzeppelin/contracts/access/Ownable.sol\":3029:3037  newOwner */\n      dup2\n        /* \"@openzeppelin/contracts/access/Ownable.sol\":3020:3026  _owner */\n      0x00\n      0x00\n        /* \"@openzeppelin/contracts/access/Ownable.sol\":3020:3037  _owner = newOwner */\n      0x0100\n      exp\n      dup2\n      sload\n      dup2\n      0xffffffffffffffffffffffffffffffffffffffff\n      mul\n      not\n      and\n      swap1\n      dup4\n      0xffffffffffffffffffffffffffffffffffffffff\n      and\n      mul\n      or\n      swap1\n      sstore\n      pop\n        /* \"@openzeppelin/contracts/access/Ownable.sol\":3083:3091  newOwner */\n      dup2\n        /* \"@openzeppelin/contracts/access/Ownable.sol\":3052:3092  OwnershipTransferred(oldOwner, newOwner) */\n      0xffffffffffffffffffffffffffffffffffffffff\n      and\n        /* \"@openzeppelin/contracts/access/Ownable.sol\":3073:3081  oldOwner */\n      dup2\n        /* \"@openzeppelin/contracts/access/Ownable.sol\":3052:3092  OwnershipTransferred(oldOwner, newOwner) */\n      0xffffffffffffffffffffffffffffffffffffffff\n      and\n      0x8be0079c531659141344cd1fd0a4f28419497f9722a3daafe3b4186f6b6457e0\n      mload(0x40)\n      mload(0x40)\n      dup1\n      swap2\n      sub\n      swap1\n      log3\n        /* \"@openzeppelin/contracts/access/Ownable.sol\":2975:3099  {... */\n      pop\n        /* \"@openzeppelin/contracts/access/Ownable.sol\":2912:3099  function _transferOwnership(address newOwner) internal virtual {... */\n      pop\n      jump\t// out\n        /* \"@openzeppelin/contracts/utils/Context.sol\":656:752  function _msgSender() internal view virtual returns (address) {... */\n    tag_123:\n        /* \"@openzeppelin/contracts/utils/Context.sol\":709:716  address */\n      0x00\n        /* \"@openzeppelin/contracts/utils/Context.sol\":735:745  msg.sender */\n      caller\n        /* \"@openzeppelin/contracts/utils/Context.sol\":728:745  return msg.sender */\n      swap1\n      pop\n        /* \"@openzeppelin/contracts/utils/Context.sol\":656:752  function _msgSender() internal view virtual returns (address) {... */\n      swap1\n      jump\t// out\n        /* \"#utility.yul\":7:133   */\n    tag_130:\n        /* \"#utility.yul\":44:51   */\n      0x00\n        /* \"#utility.yul\":84:126   */\n      0xffffffffffffffffffffffffffffffffffffffff\n        /* \"#utility.yul\":77:82   */\n      dup3\n        /* \"#utility.yul\":73:127   */\n      and\n        /* \"#utility.yul\":62:127   */\n      swap1\n      pop\n        /* \"#utility.yul\":7:133   */\n      swap2\n      swap1\n      pop\n      jump\t// out\n        /* \"#utility.yul\":139:199   */\n    tag_131:\n        /* \"#utility.yul\":167:170   */\n      0x00\n        /* \"#utility.yul\":188:193   */\n      dup2\n        /* \"#utility.yul\":181:193   */\n      swap1\n      pop\n        /* \"#utility.yul\":139:199   */\n      swap2\n      swap1\n      pop\n      jump\t// out\n        /* \"#utility.yul\":205:347   */\n    tag_132:\n        /* \"#utility.yul\":255:264   */\n      0x00\n        /* \"#utility.yul\":288:341   */\n      tag_167\n        /* \"#utility.yul\":306:340   */\n      tag_168\n        /* \"#utility.yul\":315:339   */\n      tag_169\n        /* \"#utility.yul\":333:338   */\n      dup5\n        /* \"#utility.yul\":315:339   */\n      tag_130\n      jump\t// in\n    tag_169:\n        /* \"#utility.yul\":306:340   */\n      tag_131\n      jump\t// in\n    tag_168:\n        /* \"#utility.yul\":288:341   */\n      tag_130\n      jump\t// in\n    tag_167:\n        /* \"#utility.yul\":275:341   */\n      swap1\n      pop\n        /* \"#utility.yul\":205:347   */\n      swap2\n      swap1\n      pop\n      jump\t// out\n        /* \"#utility.yul\":353:479   */\n    tag_133:\n        /* \"#utility.yul\":403:412   */\n      0x00\n        /* \"#utility.yul\":436:473   */\n      tag_171\n        /* \"#utility.yul\":467:472   */\n      dup3\n        /* \"#utility.yul\":436:473   */\n      tag_132\n      jump\t// in\n    tag_171:\n        /* \"#utility.yul\":423:473   */\n      swap1\n      pop\n        /* \"#utility.yul\":353:479   */\n      swap2\n      swap1\n      pop\n      jump\t// out\n        /* \"#utility.yul\":485:625   */\n    tag_134:\n        /* \"#utility.yul\":549:558   */\n      0x00\n        /* \"#utility.yul\":582:619   */\n      tag_173\n        /* \"#utility.yul\":613:618   */\n      dup3\n        /* \"#utility.yul\":582:619   */\n      tag_133\n      jump\t// in\n    tag_173:\n        /* \"#utility.yul\":569:619   */\n      swap1\n      pop\n        /* \"#utility.yul\":485:625   */\n      swap2\n      swap1\n      pop\n      jump\t// out\n        /* \"#utility.yul\":631:790   */\n    tag_135:\n        /* \"#utility.yul\":732:783   */\n      tag_175\n        /* \"#utility.yul\":777:782   */\n      dup2\n        /* \"#utility.yul\":732:783   */\n      tag_134\n      jump\t// in\n    tag_175:\n        /* \"#utility.yul\":727:730   */\n      dup3\n        /* \"#utility.yul\":720:784   */\n      mstore\n        /* \"#utility.yul\":631:790   */\n      pop\n      pop\n      jump\t// out\n        /* \"#utility.yul\":796:1046   */\n    tag_19:\n        /* \"#utility.yul\":903:907   */\n      0x00\n        /* \"#utility.yul\":941:943   */\n      0x20\n        /* \"#utility.yul\":930:939   */\n      dup3\n        /* \"#utility.yul\":926:944   */\n      add\n        /* \"#utility.yul\":918:944   */\n      swap1\n      pop\n        /* \"#utility.yul\":954:1039   */\n      tag_177\n        /* \"#utility.yul\":1036:1037   */\n      0x00\n        /* \"#utility.yul\":1025:1034   */\n      dup4\n        /* \"#utility.yul\":1021:1038   */\n      add\n        /* \"#utility.yul\":1012:1018   */\n      dup5\n        /* \"#utility.yul\":954:1039   */\n      tag_135\n      jump\t// in\n    tag_177:\n        /* \"#utility.yul\":796:1046   */\n      swap3\n      swap2\n      pop\n      pop\n      jump\t// out\n        /* \"#utility.yul\":1133:1250   */\n    tag_137:\n        /* \"#utility.yul\":1242:1243   */\n      0x00\n        /* \"#utility.yul\":1239:1240   */\n      0x00\n        /* \"#utility.yul\":1232:1244   */\n      revert\n        /* \"#utility.yul\":1379:1475   */\n    tag_139:\n        /* \"#utility.yul\":1416:1423   */\n      0x00\n        /* \"#utility.yul\":1445:1469   */\n      tag_182\n        /* \"#utility.yul\":1463:1468   */\n      dup3\n        /* \"#utility.yul\":1445:1469   */\n      tag_130\n      jump\t// in\n    tag_182:\n        /* \"#utility.yul\":1434:1469   */\n      swap1\n      pop\n        /* \"#utility.yul\":1379:1475   */\n      swap2\n      swap1\n      pop\n      jump\t// out\n        /* \"#utility.yul\":1481:1603   */\n    tag_140:\n        /* \"#utility.yul\":1554:1578   */\n      tag_184\n        /* \"#utility.yul\":1572:1577   */\n      dup2\n        /* \"#utility.yul\":1554:1578   */\n      tag_139\n      jump\t// in\n    tag_184:\n        /* \"#utility.yul\":1547:1552   */\n      dup2\n        /* \"#utility.yul\":1544:1579   */\n      eq\n        /* \"#utility.yul\":1534:1597   */\n      tag_185\n      jumpi\n        /* \"#utility.yul\":1593:1594   */\n      0x00\n        /* \"#utility.yul\":1590:1591   */\n      0x00\n        /* \"#utility.yul\":1583:1595   */\n      revert\n        /* \"#utility.yul\":1534:1597   */\n    tag_185:\n        /* \"#utility.yul\":1481:1603   */\n      pop\n      jump\t// out\n        /* \"#utility.yul\":1609:1748   */\n    tag_141:\n        /* \"#utility.yul\":1655:1660   */\n      0x00\n        /* \"#utility.yul\":1693:1699   */\n      dup2\n        /* \"#utility.yul\":1680:1700   */\n      calldataload\n        /* \"#utility.yul\":1671:1700   */\n      swap1\n      pop\n        /* \"#utility.yul\":1709:1742   */\n      tag_187\n        /* \"#utility.yul\":1736:1741   */\n      dup2\n        /* \"#utility.yul\":1709:1742   */\n      tag_140\n      jump\t// in\n    tag_187:\n        /* \"#utility.yul\":1609:1748   */\n      swap3\n      swap2\n      pop\n      pop\n      jump\t// out\n        /* \"#utility.yul\":1754:2083   */\n    tag_22:\n        /* \"#utility.yul\":1813:1819   */\n      0x00\n        /* \"#utility.yul\":1862:1864   */\n      0x20\n        /* \"#utility.yul\":1850:1859   */\n      dup3\n        /* \"#utility.yul\":1841:1848   */\n      dup5\n        /* \"#utility.yul\":1837:1860   */\n      sub\n        /* \"#utility.yul\":1833:1865   */\n      slt\n        /* \"#utility.yul\":1830:1949   */\n      iszero\n      tag_189\n      jumpi\n        /* \"#utility.yul\":1868:1947   */\n      tag_190\n      tag_137\n      jump\t// in\n    tag_190:\n        /* \"#utility.yul\":1830:1949   */\n    tag_189:\n        /* \"#utility.yul\":1988:1989   */\n      0x00\n        /* \"#utility.yul\":2013:2066   */\n      tag_191\n        /* \"#utility.yul\":2058:2065   */\n      dup5\n        /* \"#utility.yul\":2049:2055   */\n      dup3\n        /* \"#utility.yul\":2038:2047   */\n      dup6\n        /* \"#utility.yul\":2034:2056   */\n      add\n        /* \"#utility.yul\":2013:2066   */\n      tag_141\n      jump\t// in\n    tag_191:\n        /* \"#utility.yul\":2003:2066   */\n      swap2\n      pop\n        /* \"#utility.yul\":1959:2076   */\n      pop\n        /* \"#utility.yul\":1754:2083   */\n      swap3\n      swap2\n      pop\n      pop\n      jump\t// out\n        /* \"#utility.yul\":2089:2166   */\n    tag_142:\n        /* \"#utility.yul\":2126:2133   */\n      0x00\n        /* \"#utility.yul\":2155:2160   */\n      dup2\n        /* \"#utility.yul\":2144:2160   */\n      swap1\n      pop\n        /* \"#utility.yul\":2089:2166   */\n      swap2\n      swap1\n      pop\n      jump\t// out\n        /* \"#utility.yul\":2172:2290   */\n    tag_143:\n        /* \"#utility.yul\":2259:2283   */\n      tag_194\n        /* \"#utility.yul\":2277:2282   */\n      dup2\n        /* \"#utility.yul\":2259:2283   */\n      tag_142\n      jump\t// in\n    tag_194:\n        /* \"#utility.yul\":2254:2257   */\n      dup3\n        /* \"#utility.yul\":2247:2284   */\n      mstore\n        /* \"#utility.yul\":2172:2290   */\n      pop\n      pop\n      jump\t// out\n        /* \"#utility.yul\":2296:2738   */\n    tag_25:\n        /* \"#utility.yul\":2445:2449   */\n      0x00\n        /* \"#utility.yul\":2483:2485   */\n      0x60\n        /* \"#utility.yul\":2472:2481   */\n      dup3\n        /* \"#utility.yul\":2468:2486   */\n      add\n        /* \"#utility.yul\":2460:2486   */\n      swap1\n      pop\n        /* \"#utility.yul\":2496:2567   */\n      tag_196\n        /* \"#utility.yul\":2564:2565   */\n      0x00\n        /* \"#utility.yul\":2553:2562   */\n      dup4\n        /* \"#utility.yul\":2549:2566   */\n      add\n        /* \"#utility.yul\":2540:2546   */\n      dup7\n        /* \"#utility.yul\":2496:2567   */\n      tag_143\n      jump\t// in\n    tag_196:\n        /* \"#utility.yul\":2577:2649   */\n      tag_197\n        /* \"#utility.yul\":2645:2647   */\n      0x20\n        /* \"#utility.yul\":2634:2643   */\n      dup4\n        /* \"#utility.yul\":2630:2648   */\n      add\n        /* \"#utility.yul\":2621:2627   */\n      dup6\n        /* \"#utility.yul\":2577:2649   */\n      tag_143\n      jump\t// in\n    tag_197:\n        /* \"#utility.yul\":2659:2731   */\n      tag_198\n        /* \"#utility.yul\":2727:2729   */\n      0x40\n        /* \"#utility.yul\":2716:2725   */\n      dup4\n        /* \"#utility.yul\":2712:2730   */\n      add\n        /* \"#utility.yul\":2703:2709   */\n      dup5\n        /* \"#utility.yul\":2659:2731   */\n      tag_143\n      jump\t// in\n    tag_198:\n        /* \"#utility.yul\":2296:2738   */\n      swap5\n      swap4\n      pop\n      pop\n      pop\n      pop\n      jump\t// out\n        /* \"#utility.yul\":2744:2966   */\n    tag_29:\n        /* \"#utility.yul\":2837:2841   */\n      0x00\n        /* \"#utility.yul\":2875:2877   */\n      0x20\n        /* \"#utility.yul\":2864:2873   */\n      dup3\n        /* \"#utility.yul\":2860:2878   */\n      add\n        /* \"#utility.yul\":2852:2878   */\n      swap1\n      pop\n        /* \"#utility.yul\":2888:2959   */\n      tag_200\n        /* \"#utility.yul\":2956:2957   */\n      0x00\n        /* \"#utility.yul\":2945:2954   */\n      dup4\n        /* \"#utility.yul\":2941:2958   */\n      add\n        /* \"#utility.yul\":2932:2938   */\n      dup5\n        /* \"#utility.yul\":2888:2959   */\n      tag_143\n      jump\t// in\n    tag_200:\n        /* \"#utility.yul\":2744:2966   */\n      swap3\n      swap2\n      pop\n      pop\n      jump\t// out\n        /* \"#utility.yul\":2972:3090   */\n    tag_144:\n        /* \"#utility.yul\":3059:3083   */\n      tag_202\n        /* \"#utility.yul\":3077:3082   */\n      dup2\n        /* \"#utility.yul\":3059:3083   */\n      tag_139\n      jump\t// in\n    tag_202:\n        /* \"#utility.yul\":3054:3057   */\n      dup3\n        /* \"#utility.yul\":3047:3084   */\n      mstore\n        /* \"#utility.yul\":2972:3090   */\n      pop\n      pop\n      jump\t// out\n        /* \"#utility.yul\":3096:3318   */\n    tag_35:\n        /* \"#utility.yul\":3189:3193   */\n      0x00\n        /* \"#utility.yul\":3227:3229   */\n      0x20\n        /* \"#utility.yul\":3216:3225   */\n      dup3\n        /* \"#utility.yul\":3212:3230   */\n      add\n        /* \"#utility.yul\":3204:3230   */\n      swap1\n      pop\n        /* \"#utility.yul\":3240:3311   */\n      tag_204\n        /* \"#utility.yul\":3308:3309   */\n      0x00\n        /* \"#utility.yul\":3297:3306   */\n      dup4\n        /* \"#utility.yul\":3293:3310   */\n      add\n        /* \"#utility.yul\":3284:3290   */\n      dup5\n        /* \"#utility.yul\":3240:3311   */\n      tag_144\n      jump\t// in\n    tag_204:\n        /* \"#utility.yul\":3096:3318   */\n      swap3\n      swap2\n      pop\n      pop\n      jump\t// out\n        /* \"#utility.yul\":3324:3446   */\n    tag_145:\n        /* \"#utility.yul\":3397:3421   */\n      tag_206\n        /* \"#utility.yul\":3415:3420   */\n      dup2\n        /* \"#utility.yul\":3397:3421   */\n      tag_142\n      jump\t// in\n    tag_206:\n        /* \"#utility.yul\":3390:3395   */\n      dup2\n        /* \"#utility.yul\":3387:3422   */\n      eq\n        /* \"#utility.yul\":3377:3440   */\n      tag_207\n      jumpi\n        /* \"#utility.yul\":3436:3437   */\n      0x00\n        /* \"#utility.yul\":3433:3434   */\n      0x00\n        /* \"#utility.yul\":3426:3438   */\n      revert\n        /* \"#utility.yul\":3377:3440   */\n    tag_207:\n        /* \"#utility.yul\":3324:3446   */\n      pop\n      jump\t// out\n        /* \"#utility.yul\":3452:3591   */\n    tag_146:\n        /* \"#utility.yul\":3498:3503   */\n      0x00\n        /* \"#utility.yul\":3536:3542   */\n      dup2\n        /* \"#utility.yul\":3523:3543   */\n      calldataload\n        /* \"#utility.yul\":3514:3543   */\n      swap1\n      pop\n        /* \"#utility.yul\":3552:3585   */\n      tag_209\n        /* \"#utility.yul\":3579:3584   */\n      dup2\n        /* \"#utility.yul\":3552:3585   */\n      tag_145\n      jump\t// in\n    tag_209:\n        /* \"#utility.yul\":3452:3591   */\n      swap3\n      swap2\n      pop\n      pop\n      jump\t// out\n        /* \"#utility.yul\":3597:3926   */\n    tag_38:\n        /* \"#utility.yul\":3656:3662   */\n      0x00\n        /* \"#utility.yul\":3705:3707   */\n      0x20\n        /* \"#utility.yul\":3693:3702   */\n      dup3\n        /* \"#utility.yul\":3684:3691   */\n      dup5\n        /* \"#utility.yul\":3680:3703   */\n      sub\n        /* \"#utility.yul\":3676:3708   */\n      slt\n        /* \"#utility.yul\":3673:3792   */\n      iszero\n      tag_211\n      jumpi\n        /* \"#utility.yul\":3711:3790   */\n      tag_212\n      tag_137\n      jump\t// in\n    tag_212:\n        /* \"#utility.yul\":3673:3792   */\n    tag_211:\n        /* \"#utility.yul\":3831:3832   */\n      0x00\n        /* \"#utility.yul\":3856:3909   */\n      tag_213\n        /* \"#utility.yul\":3901:3908   */\n      dup5\n        /* \"#utility.yul\":3892:3898   */\n      dup3\n        /* \"#utility.yul\":3881:3890   */\n      dup6\n        /* \"#utility.yul\":3877:3899   */\n      add\n        /* \"#utility.yul\":3856:3909   */\n      tag_146\n      jump\t// in\n    tag_213:\n        /* \"#utility.yul\":3846:3909   */\n      swap2\n      pop\n        /* \"#utility.yul\":3802:3919   */\n      pop\n        /* \"#utility.yul\":3597:3926   */\n      swap3\n      swap2\n      pop\n      pop\n      jump\t// out\n        /* \"#utility.yul\":3932:4101   */\n    tag_147:\n        /* \"#utility.yul\":4016:4027   */\n      0x00\n        /* \"#utility.yul\":4050:4056   */\n      dup3\n        /* \"#utility.yul\":4045:4048   */\n      dup3\n        /* \"#utility.yul\":4038:4057   */\n      mstore\n        /* \"#utility.yul\":4090:4094   */\n      0x20\n        /* \"#utility.yul\":4085:4088   */\n      dup3\n        /* \"#utility.yul\":4081:4095   */\n      add\n        /* \"#utility.yul\":4066:4095   */\n      swap1\n      pop\n        /* \"#utility.yul\":3932:4101   */\n      swap3\n      swap2\n      pop\n      pop\n      jump\t// out\n        /* \"#utility.yul\":4107:4332   */\n    tag_148:\n        /* \"#utility.yul\":4247:4281   */\n      0x4c6f7320666f6e646f732061756e206e6f2070756564656e2073657220726574\n        /* \"#utility.yul\":4243:4244   */\n      0x00\n        /* \"#utility.yul\":4235:4241   */\n      dup3\n        /* \"#utility.yul\":4231:4245   */\n      add\n        /* \"#utility.yul\":4224:4282   */\n      mstore\n        /* \"#utility.yul\":4316:4324   */\n      0x697261646f730000000000000000000000000000000000000000000000000000\n        /* \"#utility.yul\":4311:4313   */\n      0x20\n        /* \"#utility.yul\":4303:4309   */\n      dup3\n        /* \"#utility.yul\":4299:4314   */\n      add\n        /* \"#utility.yul\":4292:4325   */\n      mstore\n        /* \"#utility.yul\":4107:4332   */\n      pop\n      jump\t// out\n        /* \"#utility.yul\":4338:4704   */\n    tag_149:\n        /* \"#utility.yul\":4480:4483   */\n      0x00\n        /* \"#utility.yul\":4501:4568   */\n      tag_217\n        /* \"#utility.yul\":4565:4567   */\n      0x26\n        /* \"#utility.yul\":4560:4563   */\n      dup4\n        /* \"#utility.yul\":4501:4568   */\n      tag_147\n      jump\t// in\n    tag_217:\n        /* \"#utility.yul\":4494:4568   */\n      swap2\n      pop\n        /* \"#utility.yul\":4577:4670   */\n      tag_218\n        /* \"#utility.yul\":4666:4669   */\n      dup3\n        /* \"#utility.yul\":4577:4670   */\n      tag_148\n      jump\t// in\n    tag_218:\n        /* \"#utility.yul\":4695:4697   */\n      0x40\n        /* \"#utility.yul\":4690:4693   */\n      dup3\n        /* \"#utility.yul\":4686:4698   */\n      add\n        /* \"#utility.yul\":4679:4698   */\n      swap1\n      pop\n        /* \"#utility.yul\":4338:4704   */\n      swap2\n      swap1\n      pop\n      jump\t// out\n        /* \"#utility.yul\":4710:5129   */\n    tag_56:\n        /* \"#utility.yul\":4876:4880   */\n      0x00\n        /* \"#utility.yul\":4914:4916   */\n      0x20\n        /* \"#utility.yul\":4903:4912   */\n      dup3\n        /* \"#utility.yul\":4899:4917   */\n      add\n        /* \"#utility.yul\":4891:4917   */\n      swap1\n      pop\n        /* \"#utility.yul\":4963:4972   */\n      dup2\n        /* \"#utility.yul\":4957:4961   */\n      dup2\n        /* \"#utility.yul\":4953:4973   */\n      sub\n        /* \"#utility.yul\":4949:4950   */\n      0x00\n        /* \"#utility.yul\":4938:4947   */\n      dup4\n        /* \"#utility.yul\":4934:4951   */\n      add\n        /* \"#utility.yul\":4927:4974   */\n      mstore\n        /* \"#utility.yul\":4991:5122   */\n      tag_220\n        /* \"#utility.yul\":5117:5121   */\n      dup2\n        /* \"#utility.yul\":4991:5122   */\n      tag_149\n      jump\t// in\n    tag_220:\n        /* \"#utility.yul\":4983:5122   */\n      swap1\n      pop\n        /* \"#utility.yul\":4710:5129   */\n      swap2\n      swap1\n      pop\n      jump\t// out\n        /* \"#utility.yul\":5135:5314   */\n    tag_150:\n        /* \"#utility.yul\":5275:5306   */\n      0x4e6f207469656e657320666f6e646f7320706172612072657469726172000000\n        /* \"#utility.yul\":5271:5272   */\n      0x00\n        /* \"#utility.yul\":5263:5269   */\n      dup3\n        /* \"#utility.yul\":5259:5273   */\n      add\n        /* \"#utility.yul\":5252:5307   */\n      mstore\n        /* \"#utility.yul\":5135:5314   */\n      pop\n      jump\t// out\n        /* \"#utility.yul\":5320:5686   */\n    tag_151:\n        /* \"#utility.yul\":5462:5465   */\n      0x00\n        /* \"#utility.yul\":5483:5550   */\n      tag_223\n        /* \"#utility.yul\":5547:5549   */\n      0x1d\n        /* \"#utility.yul\":5542:5545   */\n      dup4\n        /* \"#utility.yul\":5483:5550   */\n      tag_147\n      jump\t// in\n    tag_223:\n        /* \"#utility.yul\":5476:5550   */\n      swap2\n      pop\n        /* \"#utility.yul\":5559:5652   */\n      tag_224\n        /* \"#utility.yul\":5648:5651   */\n      dup3\n        /* \"#utility.yul\":5559:5652   */\n      tag_150\n      jump\t// in\n    tag_224:\n        /* \"#utility.yul\":5677:5679   */\n      0x20\n        /* \"#utility.yul\":5672:5675   */\n      dup3\n        /* \"#utility.yul\":5668:5680   */\n      add\n        /* \"#utility.yul\":5661:5680   */\n      swap1\n      pop\n        /* \"#utility.yul\":5320:5686   */\n      swap2\n      swap1\n      pop\n      jump\t// out\n        /* \"#utility.yul\":5692:6111   */\n    tag_59:\n        /* \"#utility.yul\":5858:5862   */\n      0x00\n        /* \"#utility.yul\":5896:5898   */\n      0x20\n        /* \"#utility.yul\":5885:5894   */\n      dup3\n        /* \"#utility.yul\":5881:5899   */\n      add\n        /* \"#utility.yul\":5873:5899   */\n      swap1\n      pop\n        /* \"#utility.yul\":5945:5954   */\n      dup2\n        /* \"#utility.yul\":5939:5943   */\n      dup2\n        /* \"#utility.yul\":5935:5955   */\n      sub\n        /* \"#utility.yul\":5931:5932   */\n      0x00\n        /* \"#utility.yul\":5920:5929   */\n      dup4\n        /* \"#utility.yul\":5916:5933   */\n      add\n        /* \"#utility.yul\":5909:5956   */\n      mstore\n        /* \"#utility.yul\":5973:6104   */\n      tag_226\n        /* \"#utility.yul\":6099:6103   */\n      dup2\n        /* \"#utility.yul\":5973:6104   */\n      tag_151\n      jump\t// in\n    tag_226:\n        /* \"#utility.yul\":5965:6104   */\n      swap1\n      pop\n        /* \"#utility.yul\":5692:6111   */\n      swap2\n      swap1\n      pop\n      jump\t// out\n        /* \"#utility.yul\":6117:6297   */\n    tag_152:\n        /* \"#utility.yul\":6165:6242   */\n      0x4e487b7100000000000000000000000000000000000000000000000000000000\n        /* \"#utility.yul\":6162:6163   */\n      0x00\n        /* \"#utility.yul\":6155:6243   */\n      mstore\n        /* \"#utility.yul\":6262:6266   */\n      0x11\n        /* \"#utility.yul\":6259:6260   */\n      0x04\n        /* \"#utility.yul\":6252:6267   */\n      mstore\n        /* \"#utility.yul\":6286:6290   */\n      0x24\n        /* \"#utility.yul\":6283:6284   */\n      0x00\n        /* \"#utility.yul\":6276:6291   */\n      revert\n        /* \"#utility.yul\":6303:6494   */\n    tag_62:\n        /* \"#utility.yul\":6343:6346   */\n      0x00\n        /* \"#utility.yul\":6362:6382   */\n      tag_229\n        /* \"#utility.yul\":6380:6381   */\n      dup3\n        /* \"#utility.yul\":6362:6382   */\n      tag_142\n      jump\t// in\n    tag_229:\n        /* \"#utility.yul\":6357:6382   */\n      swap2\n      pop\n        /* \"#utility.yul\":6396:6416   */\n      tag_230\n        /* \"#utility.yul\":6414:6415   */\n      dup4\n        /* \"#utility.yul\":6396:6416   */\n      tag_142\n      jump\t// in\n    tag_230:\n        /* \"#utility.yul\":6391:6416   */\n      swap3\n      pop\n        /* \"#utility.yul\":6439:6440   */\n      dup3\n        /* \"#utility.yul\":6436:6437   */\n      dup3\n        /* \"#utility.yul\":6432:6441   */\n      add\n        /* \"#utility.yul\":6425:6441   */\n      swap1\n      pop\n        /* \"#utility.yul\":6460:6463   */\n      dup1\n        /* \"#utility.yul\":6457:6458   */\n      dup3\n        /* \"#utility.yul\":6454:6464   */\n      gt\n        /* \"#utility.yul\":6451:6487   */\n      iszero\n      tag_231\n      jumpi\n        /* \"#utility.yul\":6467:6485   */\n      tag_232\n      tag_152\n      jump\t// in\n    tag_232:\n        /* \"#utility.yul\":6451:6487   */\n    tag_231:\n        /* \"#utility.yul\":6303:6494   */\n      swap3\n      swap2\n      pop\n      pop\n      jump\t// out\n        /* \"#utility.yul\":6500:6832   */\n    tag_65:\n        /* \"#utility.yul\":6621:6625   */\n      0x00\n        /* \"#utility.yul\":6659:6661   */\n      0x40\n        /* \"#utility.yul\":6648:6657   */\n      dup3\n        /* \"#utility.yul\":6644:6662   */\n      add\n        /* \"#utility.yul\":6636:6662   */\n      swap1\n      pop\n        /* \"#utility.yul\":6672:6743   */\n      tag_234\n        /* \"#utility.yul\":6740:6741   */\n      0x00\n        /* \"#utility.yul\":6729:6738   */\n      dup4\n        /* \"#utility.yul\":6725:6742   */\n      add\n        /* \"#utility.yul\":6716:6722   */\n      dup6\n        /* \"#utility.yul\":6672:6743   */\n      tag_144\n      jump\t// in\n    tag_234:\n        /* \"#utility.yul\":6753:6825   */\n      tag_235\n        /* \"#utility.yul\":6821:6823   */\n      0x20\n        /* \"#utility.yul\":6810:6819   */\n      dup4\n        /* \"#utility.yul\":6806:6824   */\n      add\n        /* \"#utility.yul\":6797:6803   */\n      dup5\n        /* \"#utility.yul\":6753:6825   */\n      tag_143\n      jump\t// in\n    tag_235:\n        /* \"#utility.yul\":6500:6832   */\n      swap4\n      swap3\n      pop\n      pop\n      pop\n      jump\t// out\n        /* \"#utility.yul\":6838:6928   */\n    tag_153:\n        /* \"#utility.yul\":6872:6879   */\n      0x00\n        /* \"#utility.yul\":6915:6920   */\n      dup2\n        /* \"#utility.yul\":6908:6921   */\n      iszero\n        /* \"#utility.yul\":6901:6922   */\n      iszero\n        /* \"#utility.yul\":6890:6922   */\n      swap1\n      pop\n        /* \"#utility.yul\":6838:6928   */\n      swap2\n      swap1\n      pop\n      jump\t// out\n        /* \"#utility.yul\":6934:7050   */\n    tag_154:\n        /* \"#utility.yul\":7004:7025   */\n      tag_238\n        /* \"#utility.yul\":7019:7024   */\n      dup2\n        /* \"#utility.yul\":7004:7025   */\n      tag_153\n      jump\t// in\n    tag_238:\n        /* \"#utility.yul\":6997:7002   */\n      dup2\n        /* \"#utility.yul\":6994:7026   */\n      eq\n        /* \"#utility.yul\":6984:7044   */\n      tag_239\n      jumpi\n        /* \"#utility.yul\":7040:7041   */\n      0x00\n        /* \"#utility.yul\":7037:7038   */\n      0x00\n        /* \"#utility.yul\":7030:7042   */\n      revert\n        /* \"#utility.yul\":6984:7044   */\n    tag_239:\n        /* \"#utility.yul\":6934:7050   */\n      pop\n      jump\t// out\n        /* \"#utility.yul\":7056:7193   */\n    tag_155:\n        /* \"#utility.yul\":7110:7115   */\n      0x00\n        /* \"#utility.yul\":7141:7147   */\n      dup2\n        /* \"#utility.yul\":7135:7148   */\n      mload\n        /* \"#utility.yul\":7126:7148   */\n      swap1\n      pop\n        /* \"#utility.yul\":7157:7187   */\n      tag_241\n        /* \"#utility.yul\":7181:7186   */\n      dup2\n        /* \"#utility.yul\":7157:7187   */\n      tag_154\n      jump\t// in\n    tag_241:\n        /* \"#utility.yul\":7056:7193   */\n      swap3\n      swap2\n      pop\n      pop\n      jump\t// out\n        /* \"#utility.yul\":7199:7544   */\n    tag_69:\n        /* \"#utility.yul\":7266:7272   */\n      0x00\n        /* \"#utility.yul\":7315:7317   */\n      0x20\n        /* \"#utility.yul\":7303:7312   */\n      dup3\n        /* \"#utility.yul\":7294:7301   */\n      dup5\n        /* \"#utility.yul\":7290:7313   */\n      sub\n        /* \"#utility.yul\":7286:7318   */\n      slt\n        /* \"#utility.yul\":7283:7402   */\n      iszero\n      tag_243\n      jumpi\n        /* \"#utility.yul\":7321:7400   */\n      tag_244\n      tag_137\n      jump\t// in\n    tag_244:\n        /* \"#utility.yul\":7283:7402   */\n    tag_243:\n        /* \"#utility.yul\":7441:7442   */\n      0x00\n        /* \"#utility.yul\":7466:7527   */\n      tag_245\n        /* \"#utility.yul\":7519:7526   */\n      dup5\n        /* \"#utility.yul\":7510:7516   */\n      dup3\n        /* \"#utility.yul\":7499:7508   */\n      dup6\n        /* \"#utility.yul\":7495:7517   */\n      add\n        /* \"#utility.yul\":7466:7527   */\n      tag_155\n      jump\t// in\n    tag_245:\n        /* \"#utility.yul\":7456:7527   */\n      swap2\n      pop\n        /* \"#utility.yul\":7412:7537   */\n      pop\n        /* \"#utility.yul\":7199:7544   */\n      swap3\n      swap2\n      pop\n      pop\n      jump\t// out\n        /* \"#utility.yul\":7550:7732   */\n    tag_156:\n        /* \"#utility.yul\":7690:7724   */\n      0x4c61207472616e73666572656e6369612064652072657469726f2066616c6c6f\n        /* \"#utility.yul\":7686:7687   */\n      0x00\n        /* \"#utility.yul\":7678:7684   */\n      dup3\n        /* \"#utility.yul\":7674:7688   */\n      add\n        /* \"#utility.yul\":7667:7725   */\n      mstore\n        /* \"#utility.yul\":7550:7732   */\n      pop\n      jump\t// out\n        /* \"#utility.yul\":7738:8104   */\n    tag_157:\n        /* \"#utility.yul\":7880:7883   */\n      0x00\n        /* \"#utility.yul\":7901:7968   */\n      tag_248\n        /* \"#utility.yul\":7965:7967   */\n      0x20\n        /* \"#utility.yul\":7960:7963   */\n      dup4\n        /* \"#utility.yul\":7901:7968   */\n      tag_147\n      jump\t// in\n    tag_248:\n        /* \"#utility.yul\":7894:7968   */\n      swap2\n      pop\n        /* \"#utility.yul\":7977:8070   */\n      tag_249\n        /* \"#utility.yul\":8066:8069   */\n      dup3\n        /* \"#utility.yul\":7977:8070   */\n      tag_156\n      jump\t// in\n    tag_249:\n        /* \"#utility.yul\":8095:8097   */\n      0x20\n        /* \"#utility.yul\":8090:8093   */\n      dup3\n        /* \"#utility.yul\":8086:8098   */\n      add\n        /* \"#utility.yul\":8079:8098   */\n      swap1\n      pop\n        /* \"#utility.yul\":7738:8104   */\n      swap2\n      swap1\n      pop\n      jump\t// out\n        /* \"#utility.yul\":8110:8529   */\n    tag_72:\n        /* \"#utility.yul\":8276:8280   */\n      0x00\n        /* \"#utility.yul\":8314:8316   */\n      0x20\n        /* \"#utility.yul\":8303:8312   */\n      dup3\n        /* \"#utility.yul\":8299:8317   */\n      add\n        /* \"#utility.yul\":8291:8317   */\n      swap1\n      pop\n        /* \"#utility.yul\":8363:8372   */\n      dup2\n        /* \"#utility.yul\":8357:8361   */\n      dup2\n        /* \"#utility.yul\":8353:8373   */\n      sub\n        /* \"#utility.yul\":8349:8350   */\n      0x00\n        /* \"#utility.yul\":8338:8347   */\n      dup4\n        /* \"#utility.yul\":8334:8351   */\n      add\n        /* \"#utility.yul\":8327:8374   */\n      mstore\n        /* \"#utility.yul\":8391:8522   */\n      tag_251\n        /* \"#utility.yul\":8517:8521   */\n      dup2\n        /* \"#utility.yul\":8391:8522   */\n      tag_157\n      jump\t// in\n    tag_251:\n        /* \"#utility.yul\":8383:8522   */\n      swap1\n      pop\n        /* \"#utility.yul\":8110:8529   */\n      swap2\n      swap1\n      pop\n      jump\t// out\n        /* \"#utility.yul\":8535:8867   */\n    tag_74:\n        /* \"#utility.yul\":8656:8660   */\n      0x00\n        /* \"#utility.yul\":8694:8696   */\n      0x40\n        /* \"#utility.yul\":8683:8692   */\n      dup3\n        /* \"#utility.yul\":8679:8697   */\n      add\n        /* \"#utility.yul\":8671:8697   */\n      swap1\n      pop\n        /* \"#utility.yul\":8707:8778   */\n      tag_253\n        /* \"#utility.yul\":8775:8776   */\n      0x00\n        /* \"#utility.yul\":8764:8773   */\n      dup4\n        /* \"#utility.yul\":8760:8777   */\n      add\n        /* \"#utility.yul\":8751:8757   */\n      dup6\n        /* \"#utility.yul\":8707:8778   */\n      tag_143\n      jump\t// in\n    tag_253:\n        /* \"#utility.yul\":8788:8860   */\n      tag_254\n        /* \"#utility.yul\":8856:8858   */\n      0x20\n        /* \"#utility.yul\":8845:8854   */\n      dup4\n        /* \"#utility.yul\":8841:8859   */\n      add\n        /* \"#utility.yul\":8832:8838   */\n      dup5\n        /* \"#utility.yul\":8788:8860   */\n      tag_143\n      jump\t// in\n    tag_254:\n        /* \"#utility.yul\":8535:8867   */\n      swap4\n      swap3\n      pop\n      pop\n      pop\n      jump\t// out\n        /* \"#utility.yul\":8873:9093   */\n    tag_158:\n        /* \"#utility.yul\":9013:9047   */\n      0x4c612063616e7469646164206465626520736572206d61796f72206120636572\n        /* \"#utility.yul\":9009:9010   */\n      0x00\n        /* \"#utility.yul\":9001:9007   */\n      dup3\n        /* \"#utility.yul\":8997:9011   */\n      add\n        /* \"#utility.yul\":8990:9048   */\n      mstore\n        /* \"#utility.yul\":9082:9085   */\n      0x6f00000000000000000000000000000000000000000000000000000000000000\n        /* \"#utility.yul\":9077:9079   */\n      0x20\n        /* \"#utility.yul\":9069:9075   */\n      dup3\n        /* \"#utility.yul\":9065:9080   */\n      add\n        /* \"#utility.yul\":9058:9086   */\n      mstore\n        /* \"#utility.yul\":8873:9093   */\n      pop\n      jump\t// out\n        /* \"#utility.yul\":9099:9465   */\n    tag_159:\n        /* \"#utility.yul\":9241:9244   */\n      0x00\n        /* \"#utility.yul\":9262:9329   */\n      tag_257\n        /* \"#utility.yul\":9326:9328   */\n      0x21\n        /* \"#utility.yul\":9321:9324   */\n      dup4\n        /* \"#utility.yul\":9262:9329   */\n      tag_147\n      jump\t// in\n    tag_257:\n        /* \"#utility.yul\":9255:9329   */\n      swap2\n      pop\n        /* \"#utility.yul\":9338:9431   */\n      tag_258\n        /* \"#utility.yul\":9427:9430   */\n      dup3\n        /* \"#utility.yul\":9338:9431   */\n      tag_158\n      jump\t// in\n    tag_258:\n        /* \"#utility.yul\":9456:9458   */\n      0x40\n        /* \"#utility.yul\":9451:9454   */\n      dup3\n        /* \"#utility.yul\":9447:9459   */\n      add\n        /* \"#utility.yul\":9440:9459   */\n      swap1\n      pop\n        /* \"#utility.yul\":9099:9465   */\n      swap2\n      swap1\n      pop\n      jump\t// out\n        /* \"#utility.yul\":9471:9890   */\n    tag_89:\n        /* \"#utility.yul\":9637:9641   */\n      0x00\n        /* \"#utility.yul\":9675:9677   */\n      0x20\n        /* \"#utility.yul\":9664:9673   */\n      dup3\n        /* \"#utility.yul\":9660:9678   */\n      add\n        /* \"#utility.yul\":9652:9678   */\n      swap1\n      pop\n        /* \"#utility.yul\":9724:9733   */\n      dup2\n        /* \"#utility.yul\":9718:9722   */\n      dup2\n        /* \"#utility.yul\":9714:9734   */\n      sub\n        /* \"#utility.yul\":9710:9711   */\n      0x00\n        /* \"#utility.yul\":9699:9708   */\n      dup4\n        /* \"#utility.yul\":9695:9712   */\n      add\n        /* \"#utility.yul\":9688:9735   */\n      mstore\n        /* \"#utility.yul\":9752:9883   */\n      tag_260\n        /* \"#utility.yul\":9878:9882   */\n      dup2\n        /* \"#utility.yul\":9752:9883   */\n      tag_159\n      jump\t// in\n    tag_260:\n        /* \"#utility.yul\":9744:9883   */\n      swap1\n      pop\n        /* \"#utility.yul\":9471:9890   */\n      swap2\n      swap1\n      pop\n      jump\t// out\n        /* \"#utility.yul\":9896:10338   */\n    tag_93:\n        /* \"#utility.yul\":10045:10049   */\n      0x00\n        /* \"#utility.yul\":10083:10085   */\n      0x60\n        /* \"#utility.yul\":10072:10081   */\n      dup3\n        /* \"#utility.yul\":10068:10086   */\n      add\n        /* \"#utility.yul\":10060:10086   */\n      swap1\n      pop\n        /* \"#utility.yul\":10096:10167   */\n      tag_262\n        /* \"#utility.yul\":10164:10165   */\n      0x00\n        /* \"#utility.yul\":10153:10162   */\n      dup4\n        /* \"#utility.yul\":10149:10166   */\n      add\n        /* \"#utility.yul\":10140:10146   */\n      dup7\n        /* \"#utility.yul\":10096:10167   */\n      tag_144\n      jump\t// in\n    tag_262:\n        /* \"#utility.yul\":10177:10249   */\n      tag_263\n        /* \"#utility.yul\":10245:10247   */\n      0x20\n        /* \"#utility.yul\":10234:10243   */\n      dup4\n        /* \"#utility.yul\":10230:10248   */\n      add\n        /* \"#utility.yul\":10221:10227   */\n      dup6\n        /* \"#utility.yul\":10177:10249   */\n      tag_144\n      jump\t// in\n    tag_263:\n        /* \"#utility.yul\":10259:10331   */\n      tag_264\n        /* \"#utility.yul\":10327:10329   */\n      0x40\n        /* \"#utility.yul\":10316:10325   */\n      dup4\n        /* \"#utility.yul\":10312:10330   */\n      add\n        /* \"#utility.yul\":10303:10309   */\n      dup5\n        /* \"#utility.yul\":10259:10331   */\n      tag_143\n      jump\t// in\n    tag_264:\n        /* \"#utility.yul\":9896:10338   */\n      swap5\n      swap4\n      pop\n      pop\n      pop\n      pop\n      jump\t// out\n        /* \"#utility.yul\":10344:10526   */\n    tag_160:\n        /* \"#utility.yul\":10484:10518   */\n      0x4c61207472616e73666572656e63696120646520746f6b656e732066616c6c6f\n        /* \"#utility.yul\":10480:10481   */\n      0x00\n        /* \"#utility.yul\":10472:10478   */\n      dup3\n        /* \"#utility.yul\":10468:10482   */\n      add\n        /* \"#utility.yul\":10461:10519   */\n      mstore\n        /* \"#utility.yul\":10344:10526   */\n      pop\n      jump\t// out\n        /* \"#utility.yul\":10532:10898   */\n    tag_161:\n        /* \"#utility.yul\":10674:10677   */\n      0x00\n        /* \"#utility.yul\":10695:10762   */\n      tag_267\n        /* \"#utility.yul\":10759:10761   */\n      0x20\n        /* \"#utility.yul\":10754:10757   */\n      dup4\n        /* \"#utility.yul\":10695:10762   */\n      tag_147\n      jump\t// in\n    tag_267:\n        /* \"#utility.yul\":10688:10762   */\n      swap2\n      pop\n        /* \"#utility.yul\":10771:10864   */\n      tag_268\n        /* \"#utility.yul\":10860:10863   */\n      dup3\n        /* \"#utility.yul\":10771:10864   */\n      tag_160\n      jump\t// in\n    tag_268:\n        /* \"#utility.yul\":10889:10891   */\n      0x20\n        /* \"#utility.yul\":10884:10887   */\n      dup3\n        /* \"#utility.yul\":10880:10892   */\n      add\n        /* \"#utility.yul\":10873:10892   */\n      swap1\n      pop\n        /* \"#utility.yul\":10532:10898   */\n      swap2\n      swap1\n      pop\n      jump\t// out\n        /* \"#utility.yul\":10904:11323   */\n    tag_99:\n        /* \"#utility.yul\":11070:11074   */\n      0x00\n        /* \"#utility.yul\":11108:11110   */\n      0x20\n        /* \"#utility.yul\":11097:11106   */\n      dup3\n        /* \"#utility.yul\":11093:11111   */\n      add\n        /* \"#utility.yul\":11085:11111   */\n      swap1\n      pop\n        /* \"#utility.yul\":11157:11166   */\n      dup2\n        /* \"#utility.yul\":11151:11155   */\n      dup2\n        /* \"#utility.yul\":11147:11167   */\n      sub\n        /* \"#utility.yul\":11143:11144   */\n      0x00\n        /* \"#utility.yul\":11132:11141   */\n      dup4\n        /* \"#utility.yul\":11128:11145   */\n      add\n        /* \"#utility.yul\":11121:11168   */\n      mstore\n        /* \"#utility.yul\":11185:11316   */\n      tag_270\n        /* \"#utility.yul\":11311:11315   */\n      dup2\n        /* \"#utility.yul\":11185:11316   */\n      tag_161\n      jump\t// in\n    tag_270:\n        /* \"#utility.yul\":11177:11316   */\n      swap1\n      pop\n        /* \"#utility.yul\":10904:11323   */\n      swap2\n      swap1\n      pop\n      jump\t// out\n        /* \"#utility.yul\":11329:11523   */\n    tag_106:\n        /* \"#utility.yul\":11369:11373   */\n      0x00\n        /* \"#utility.yul\":11389:11409   */\n      tag_272\n        /* \"#utility.yul\":11407:11408   */\n      dup3\n        /* \"#utility.yul\":11389:11409   */\n      tag_142\n      jump\t// in\n    tag_272:\n        /* \"#utility.yul\":11384:11409   */\n      swap2\n      pop\n        /* \"#utility.yul\":11423:11443   */\n      tag_273\n        /* \"#utility.yul\":11441:11442   */\n      dup4\n        /* \"#utility.yul\":11423:11443   */\n      tag_142\n      jump\t// in\n    tag_273:\n        /* \"#utility.yul\":11418:11443   */\n      swap3\n      pop\n        /* \"#utility.yul\":11467:11468   */\n      dup3\n        /* \"#utility.yul\":11464:11465   */\n      dup3\n        /* \"#utility.yul\":11460:11469   */\n      sub\n        /* \"#utility.yul\":11452:11469   */\n      swap1\n      pop\n        /* \"#utility.yul\":11491:11492   */\n      dup2\n        /* \"#utility.yul\":11485:11489   */\n      dup2\n        /* \"#utility.yul\":11482:11493   */\n      gt\n        /* \"#utility.yul\":11479:11516   */\n      iszero\n      tag_274\n      jumpi\n        /* \"#utility.yul\":11496:11514   */\n      tag_275\n      tag_152\n      jump\t// in\n    tag_275:\n        /* \"#utility.yul\":11479:11516   */\n    tag_274:\n        /* \"#utility.yul\":11329:11523   */\n      swap3\n      swap2\n      pop\n      pop\n      jump\t// out\n        /* \"#utility.yul\":11529:11939   */\n    tag_108:\n        /* \"#utility.yul\":11569:11576   */\n      0x00\n        /* \"#utility.yul\":11592:11612   */\n      tag_277\n        /* \"#utility.yul\":11610:11611   */\n      dup3\n        /* \"#utility.yul\":11592:11612   */\n      tag_142\n      jump\t// in\n    tag_277:\n        /* \"#utility.yul\":11587:11612   */\n      swap2\n      pop\n        /* \"#utility.yul\":11626:11646   */\n      tag_278\n        /* \"#utility.yul\":11644:11645   */\n      dup4\n        /* \"#utility.yul\":11626:11646   */\n      tag_142\n      jump\t// in\n    tag_278:\n        /* \"#utility.yul\":11621:11646   */\n      swap3\n      pop\n        /* \"#utility.yul\":11681:11682   */\n      dup3\n        /* \"#utility.yul\":11678:11679   */\n      dup3\n        /* \"#utility.yul\":11674:11683   */\n      mul\n        /* \"#utility.yul\":11703:11733   */\n      tag_279\n        /* \"#utility.yul\":11721:11732   */\n      dup2\n        /* \"#utility.yul\":11703:11733   */\n      tag_142\n      jump\t// in\n    tag_279:\n        /* \"#utility.yul\":11692:11733   */\n      swap2\n      pop\n        /* \"#utility.yul\":11882:11883   */\n      dup3\n        /* \"#utility.yul\":11873:11880   */\n      dup3\n        /* \"#utility.yul\":11869:11884   */\n      div\n        /* \"#utility.yul\":11866:11867   */\n      dup5\n        /* \"#utility.yul\":11863:11885   */\n      eq\n        /* \"#utility.yul\":11843:11844   */\n      dup4\n        /* \"#utility.yul\":11836:11845   */\n      iszero\n        /* \"#utility.yul\":11816:11899   */\n      or\n        /* \"#utility.yul\":11793:11932   */\n      tag_280\n      jumpi\n        /* \"#utility.yul\":11912:11930   */\n      tag_281\n      tag_152\n      jump\t// in\n    tag_281:\n        /* \"#utility.yul\":11793:11932   */\n    tag_280:\n        /* \"#utility.yul\":11577:11939   */\n      pop\n        /* \"#utility.yul\":11529:11939   */\n      swap3\n      swap2\n      pop\n      pop\n      jump\t// out\n        /* \"#utility.yul\":11945:12125   */\n    tag_162:\n        /* \"#utility.yul\":11993:12070   */\n      0x4e487b7100000000000000000000000000000000000000000000000000000000\n        /* \"#utility.yul\":11990:11991   */\n      0x00\n        /* \"#utility.yul\":11983:12071   */\n      mstore\n        /* \"#utility.yul\":12090:12094   */\n      0x12\n        /* \"#utility.yul\":12087:12088   */\n      0x04\n        /* \"#utility.yul\":12080:12095   */\n      mstore\n        /* \"#utility.yul\":12114:12118   */\n      0x24\n        /* \"#utility.yul\":12111:12112   */\n      0x00\n        /* \"#utility.yul\":12104:12119   */\n      revert\n        /* \"#utility.yul\":12131:12316   */\n    tag_111:\n        /* \"#utility.yul\":12171:12172   */\n      0x00\n        /* \"#utility.yul\":12188:12208   */\n      tag_284\n        /* \"#utility.yul\":12206:12207   */\n      dup3\n        /* \"#utility.yul\":12188:12208   */\n      tag_142\n      jump\t// in\n    tag_284:\n        /* \"#utility.yul\":12183:12208   */\n      swap2\n      pop\n        /* \"#utility.yul\":12222:12242   */\n      tag_285\n        /* \"#utility.yul\":12240:12241   */\n      dup4\n        /* \"#utility.yul\":12222:12242   */\n      tag_142\n      jump\t// in\n    tag_285:\n        /* \"#utility.yul\":12217:12242   */\n      swap3\n      pop\n        /* \"#utility.yul\":12261:12262   */\n      dup3\n        /* \"#utility.yul\":12251:12286   */\n      tag_286\n      jumpi\n        /* \"#utility.yul\":12266:12284   */\n      tag_287\n      tag_162\n      jump\t// in\n    tag_287:\n        /* \"#utility.yul\":12251:12286   */\n    tag_286:\n        /* \"#utility.yul\":12308:12309   */\n      dup3\n        /* \"#utility.yul\":12305:12306   */\n      dup3\n        /* \"#utility.yul\":12301:12310   */\n      div\n        /* \"#utility.yul\":12296:12310   */\n      swap1\n      pop\n        /* \"#utility.yul\":12131:12316   */\n      swap3\n      swap2\n      pop\n      pop\n      jump\t// out\n\n    auxdata: 0xa264697066735822122069d17a5c2af35ef5696398747c72b2c17631f3646c72a922d8eac3abb92dd78c64736f6c634300081e0033\n}\n",
				"bytecode": {
					"linkReferences": {},
					"object": "60c060405234801561000f575f5ffd5b5060405161142538038061142583398181016040528101906100319190610267565b335f73ffffffffffffffffffffffffffffffffffffffff168173ffffffffffffffffffffffffffffffffffffffff16036100a2575f6040517f1e4fbdf700000000000000000000000000000000000000000000000000000000815260040161009991906102b4565b60405180910390fd5b6100b18161011560201b60201c565b50600180819055508173ffffffffffffffffffffffffffffffffffffffff1660808173ffffffffffffffffffffffffffffffffffffffff168152505062015180816100fc91906102fa565b42610107919061033b565b60a08181525050505061036e565b5f5f5f9054906101000a900473ffffffffffffffffffffffffffffffffffffffff169050815f5f6101000a81548173ffffffffffffffffffffffffffffffffffffffff021916908373ffffffffffffffffffffffffffffffffffffffff1602179055508173ffffffffffffffffffffffffffffffffffffffff168173ffffffffffffffffffffffffffffffffffffffff167f8be0079c531659141344cd1fd0a4f28419497f9722a3daafe3b4186f6b6457e060405160405180910390a35050565b5f5ffd5b5f73ffffffffffffffffffffffffffffffffffffffff82169050919050565b5f610203826101da565b9050919050565b610213816101f9565b811461021d575f5ffd5b50565b5f8151905061022e8161020a565b92915050565b5f819050919050565b61024681610234565b8114610250575f5ffd5b50565b5f815190506102618161023d565b92915050565b5f5f6040838503121561027d5761027c6101d6565b5b5f61028a85828601610220565b925050602061029b85828601610253565b9150509250929050565b6102ae816101f9565b82525050565b5f6020820190506102c75f8301846102a5565b92915050565b7f4e487b71000000000000000000000000000000000000000000000000000000005f52601160045260245ffd5b5f61030482610234565b915061030f83610234565b925082820261031d81610234565b91508282048414831517610334576103336102cd565b5b5092915050565b5f61034582610234565b915061035083610234565b9250828201905080821115610368576103676102cd565b5b92915050565b60805160a0516110816103a45f395f81816101d001526104c701525f818161033e0152818161047d01526105d601526110815ff3fe608060405234801561000f575f5ffd5b506004361061009c575f3560e01c80638da5cb5b116100645780638da5cb5b14610122578063b6b55f2514610140578063ceb6e1c61461015c578063e7d212871461017a578063f2fde38b146101aa5761009c565b80633ccfd60b146100a057806351ed6a30146100aa5780635c63cacb146100c857806369ac5721146100fa578063715018a614610118575b5f5ffd5b6100a86101c6565b005b6100b261047b565b6040516100bf9190610a6d565b60405180910390f35b6100e260048036038101906100dd9190610ac5565b61049f565b6040516100f193929190610b08565b60405180910390f35b6101026104c5565b60405161010f9190610b3d565b60405180910390f35b6101206104e9565b005b61012a6104fc565b6040516101379190610b65565b60405180910390f35b61015a60048036038101906101559190610ba8565b610523565b005b610164610731565b6040516101719190610b3d565b60405180910390f35b610194600480360381019061018f9190610ac5565b610736565b6040516101a19190610b3d565b60405180910390f35b6101c460048036038101906101bf9190610ac5565b6107d1565b005b6101ce610855565b7f0000000000000000000000000000000000000000000000000000000000000000421015610231576040517f08c379a000000000000000000000000000000000000000000000000000000000815260040161022890610c53565b60405180910390fd5b5f60025f3373ffffffffffffffffffffffffffffffffffffffff1673ffffffffffffffffffffffffffffffffffffffff1681526020019081526020015f2090505f815f0154116102b6576040517f08c379a00000000000000000000000000000000000000000000000000000000081526004016102ad90610cbb565b60405180910390fd5b5f6102c033610736565b90505f8183600101546102d39190610d06565b90505f81845f01546102e59190610d06565b905060025f3373ffffffffffffffffffffffffffffffffffffffff1673ffffffffffffffffffffffffffffffffffffffff1681526020019081526020015f205f5f82015f9055600182015f9055600282015f905550505f7f000000000000000000000000000000000000000000000000000000000000000073ffffffffffffffffffffffffffffffffffffffff1663a9059cbb33846040518363ffffffff1660e01b8152600401610397929190610d39565b6020604051808303815f875af11580156103b3573d5f5f3e3d5ffd5b505050506040513d601f19601f820116820180604052508101906103d79190610d95565b905080610419576040517f08c379a000000000000000000000000000000000000000000000000000000000815260040161041090610e0a565b60405180910390fd5b3373ffffffffffffffffffffffffffffffffffffffff167f92ccf450a286a957af52509bc1c9939d1a6a481783e142e41e2499f0bb66ebc6865f015485604051610464929190610e28565b60405180910390a2505050505061047961089b565b565b7f000000000000000000000000000000000000000000000000000000000000000081565b6002602052805f5260405f205f91509050805f0154908060010154908060020154905083565b7f000000000000000000000000000000000000000000000000000000000000000081565b6104f16108a4565b6104fa5f61092b565b565b5f5f5f9054906101000a900473ffffffffffffffffffffffffffffffffffffffff16905090565b61052b610855565b5f811161056d576040517f08c379a000000000000000000000000000000000000000000000000000000000815260040161056490610ebf565b60405180910390fd5b5f60025f3373ffffffffffffffffffffffffffffffffffffffff1673ffffffffffffffffffffffffffffffffffffffff1681526020019081526020015f2090505f6105b733610736565b905080826001015f8282546105cc9190610d06565b925050819055505f7f000000000000000000000000000000000000000000000000000000000000000073ffffffffffffffffffffffffffffffffffffffff166323b872dd3330876040518463ffffffff1660e01b815260040161063193929190610edd565b6020604051808303815f875af115801561064d573d5f5f3e3d5ffd5b505050506040513d601f19601f820116820180604052508101906106719190610d95565b9050806106b3576040517f08c379a00000000000000000000000000000000000000000000000000000000081526004016106aa90610f5c565b60405180910390fd5b83835f015f8282546106c59190610d06565b925050819055504283600201819055503373ffffffffffffffffffffffffffffffffffffffff167f2da466a7b24304f47e87fa2e1e5a81b9831ce54fec19055ce277ca2f39ba42c48560405161071b9190610b3d565b60405180910390a250505061072e61089b565b50565b600a81565b5f5f60025f8473ffffffffffffffffffffffffffffffffffffffff1673ffffffffffffffffffffffffffffffffffffffff1681526020019081526020015f2090505f815f01540361078a575f9150506107cc565b5f81600201544261079b9190610f7a565b905063bbf81e0081600a845f01546107b39190610fad565b6107bd9190610fad565b6107c7919061101b565b925050505b919050565b6107d96108a4565b5f73ffffffffffffffffffffffffffffffffffffffff168173ffffffffffffffffffffffffffffffffffffffff1603610849575f6040517f1e4fbdf70000000000000000000000000000000000000000000000000000000081526004016108409190610b65565b60405180910390fd5b6108528161092b565b50565b600260015403610891576040517f3ee5aeb500000000000000000000000000000000000000000000000000000000815260040160405180910390fd5b6002600181905550565b60018081905550565b6108ac6109ec565b73ffffffffffffffffffffffffffffffffffffffff166108ca6104fc565b73ffffffffffffffffffffffffffffffffffffffff1614610929576108ed6109ec565b6040517f118cdaa70000000000000000000000000000000000000000000000000000000081526004016109209190610b65565b60405180910390fd5b565b5f5f5f9054906101000a900473ffffffffffffffffffffffffffffffffffffffff169050815f5f6101000a81548173ffffffffffffffffffffffffffffffffffffffff021916908373ffffffffffffffffffffffffffffffffffffffff1602179055508173ffffffffffffffffffffffffffffffffffffffff168173ffffffffffffffffffffffffffffffffffffffff167f8be0079c531659141344cd1fd0a4f28419497f9722a3daafe3b4186f6b6457e060405160405180910390a35050565b5f33905090565b5f73ffffffffffffffffffffffffffffffffffffffff82169050919050565b5f819050919050565b5f610a35610a30610a2b846109f3565b610a12565b6109f3565b9050919050565b5f610a4682610a1b565b9050919050565b5f610a5782610a3c565b9050919050565b610a6781610a4d565b82525050565b5f602082019050610a805f830184610a5e565b92915050565b5f5ffd5b5f610a94826109f3565b9050919050565b610aa481610a8a565b8114610aae575f5ffd5b50565b5f81359050610abf81610a9b565b92915050565b5f60208284031215610ada57610ad9610a86565b5b5f610ae784828501610ab1565b91505092915050565b5f819050919050565b610b0281610af0565b82525050565b5f606082019050610b1b5f830186610af9565b610b286020830185610af9565b610b356040830184610af9565b949350505050565b5f602082019050610b505f830184610af9565b92915050565b610b5f81610a8a565b82525050565b5f602082019050610b785f830184610b56565b92915050565b610b8781610af0565b8114610b91575f5ffd5b50565b5f81359050610ba281610b7e565b92915050565b5f60208284031215610bbd57610bbc610a86565b5b5f610bca84828501610b94565b91505092915050565b5f82825260208201905092915050565b7f4c6f7320666f6e646f732061756e206e6f2070756564656e20736572207265745f8201527f697261646f730000000000000000000000000000000000000000000000000000602082015250565b5f610c3d602683610bd3565b9150610c4882610be3565b604082019050919050565b5f6020820190508181035f830152610c6a81610c31565b9050919050565b7f4e6f207469656e657320666f6e646f73207061726120726574697261720000005f82015250565b5f610ca5601d83610bd3565b9150610cb082610c71565b602082019050919050565b5f6020820190508181035f830152610cd281610c99565b9050919050565b7f4e487b71000000000000000000000000000000000000000000000000000000005f52601160045260245ffd5b5f610d1082610af0565b9150610d1b83610af0565b9250828201905080821115610d3357610d32610cd9565b5b92915050565b5f604082019050610d4c5f830185610b56565b610d596020830184610af9565b9392505050565b5f8115159050919050565b610d7481610d60565b8114610d7e575f5ffd5b50565b5f81519050610d8f81610d6b565b92915050565b5f60208284031215610daa57610da9610a86565b5b5f610db784828501610d81565b91505092915050565b7f4c61207472616e73666572656e6369612064652072657469726f2066616c6c6f5f82015250565b5f610df4602083610bd3565b9150610dff82610dc0565b602082019050919050565b5f6020820190508181035f830152610e2181610de8565b9050919050565b5f604082019050610e3b5f830185610af9565b610e486020830184610af9565b9392505050565b7f4c612063616e7469646164206465626520736572206d61796f722061206365725f8201527f6f00000000000000000000000000000000000000000000000000000000000000602082015250565b5f610ea9602183610bd3565b9150610eb482610e4f565b604082019050919050565b5f6020820190508181035f830152610ed681610e9d565b9050919050565b5f606082019050610ef05f830186610b56565b610efd6020830185610b56565b610f0a6040830184610af9565b949350505050565b7f4c61207472616e73666572656e63696120646520746f6b656e732066616c6c6f5f82015250565b5f610f46602083610bd3565b9150610f5182610f12565b602082019050919050565b5f6020820190508181035f830152610f7381610f3a565b9050919050565b5f610f8482610af0565b9150610f8f83610af0565b9250828203905081811115610fa757610fa6610cd9565b5b92915050565b5f610fb782610af0565b9150610fc283610af0565b9250828202610fd081610af0565b91508282048414831517610fe757610fe6610cd9565b5b5092915050565b7f4e487b71000000000000000000000000000000000000000000000000000000005f52601260045260245ffd5b5f61102582610af0565b915061103083610af0565b9250826110405761103f610fee565b5b82820490509291505056fea264697066735822122069d17a5c2af35ef5696398747c72b2c17631f3646c72a922d8eac3abb92dd78c64736f6c634300081e0033",
					"opcodes": "PUSH1 0xC0 PUSH1 0x40 MSTORE CALLVALUE DUP1 ISZERO PUSH2 0xF JUMPI PUSH0 PUSH0 REVERT JUMPDEST POP PUSH1 0x40 MLOAD PUSH2 0x1425 CODESIZE SUB DUP1 PUSH2 0x1425 DUP4 CODECOPY DUP2 DUP2 ADD PUSH1 0x40 MSTORE DUP2 ADD SWAP1 PUSH2 0x31 SWAP2 SWAP1 PUSH2 0x267 JUMP JUMPDEST CALLER PUSH0 PUSH20 0xFFFFFFFFFFFFFFFFFFFFFFFFFFFFFFFFFFFFFFFF AND DUP2 PUSH20 0xFFFFFFFFFFFFFFFFFFFFFFFFFFFFFFFFFFFFFFFF AND SUB PUSH2 0xA2 JUMPI PUSH0 PUSH1 0x40 MLOAD PUSH32 0x1E4FBDF700000000000000000000000000000000000000000000000000000000 DUP2 MSTORE PUSH1 0x4 ADD PUSH2 0x99 SWAP2 SWAP1 PUSH2 0x2B4 JUMP JUMPDEST PUSH1 0x40 MLOAD DUP1 SWAP2 SUB SWAP1 REVERT JUMPDEST PUSH2 0xB1 DUP2 PUSH2 0x115 PUSH1 0x20 SHL PUSH1 0x20 SHR JUMP JUMPDEST POP PUSH1 0x1 DUP1 DUP2 SWAP1 SSTORE POP DUP2 PUSH20 0xFFFFFFFFFFFFFFFFFFFFFFFFFFFFFFFFFFFFFFFF AND PUSH1 0x80 DUP2 PUSH20 0xFFFFFFFFFFFFFFFFFFFFFFFFFFFFFFFFFFFFFFFF AND DUP2 MSTORE POP POP PUSH3 0x15180 DUP2 PUSH2 0xFC SWAP2 SWAP1 PUSH2 0x2FA JUMP JUMPDEST TIMESTAMP PUSH2 0x107 SWAP2 SWAP1 PUSH2 0x33B JUMP JUMPDEST PUSH1 0xA0 DUP2 DUP2 MSTORE POP POP POP POP PUSH2 0x36E JUMP JUMPDEST PUSH0 PUSH0 PUSH0 SWAP1 SLOAD SWAP1 PUSH2 0x100 EXP SWAP1 DIV PUSH20 0xFFFFFFFFFFFFFFFFFFFFFFFFFFFFFFFFFFFFFFFF AND SWAP1 POP DUP2 PUSH0 PUSH0 PUSH2 0x100 EXP DUP2 SLOAD DUP2 PUSH20 0xFFFFFFFFFFFFFFFFFFFFFFFFFFFFFFFFFFFFFFFF MUL NOT AND SWAP1 DUP4 PUSH20 0xFFFFFFFFFFFFFFFFFFFFFFFFFFFFFFFFFFFFFFFF AND MUL OR SWAP1 SSTORE POP DUP2 PUSH20 0xFFFFFFFFFFFFFFFFFFFFFFFFFFFFFFFFFFFFFFFF AND DUP2 PUSH20 0xFFFFFFFFFFFFFFFFFFFFFFFFFFFFFFFFFFFFFFFF AND PUSH32 0x8BE0079C531659141344CD1FD0A4F28419497F9722A3DAAFE3B4186F6B6457E0 PUSH1 0x40 MLOAD PUSH1 0x40 MLOAD DUP1 SWAP2 SUB SWAP1 LOG3 POP POP JUMP JUMPDEST PUSH0 PUSH0 REVERT JUMPDEST PUSH0 PUSH20 0xFFFFFFFFFFFFFFFFFFFFFFFFFFFFFFFFFFFFFFFF DUP3 AND SWAP1 POP SWAP2 SWAP1 POP JUMP JUMPDEST PUSH0 PUSH2 0x203 DUP3 PUSH2 0x1DA JUMP JUMPDEST SWAP1 POP SWAP2 SWAP1 POP JUMP JUMPDEST PUSH2 0x213 DUP2 PUSH2 0x1F9 JUMP JUMPDEST DUP2 EQ PUSH2 0x21D JUMPI PUSH0 PUSH0 REVERT JUMPDEST POP JUMP JUMPDEST PUSH0 DUP2 MLOAD SWAP1 POP PUSH2 0x22E DUP2 PUSH2 0x20A JUMP JUMPDEST SWAP3 SWAP2 POP POP JUMP JUMPDEST PUSH0 DUP2 SWAP1 POP SWAP2 SWAP1 POP JUMP JUMPDEST PUSH2 0x246 DUP2 PUSH2 0x234 JUMP JUMPDEST DUP2 EQ PUSH2 0x250 JUMPI PUSH0 PUSH0 REVERT JUMPDEST POP JUMP JUMPDEST PUSH0 DUP2 MLOAD SWAP1 POP PUSH2 0x261 DUP2 PUSH2 0x23D JUMP JUMPDEST SWAP3 SWAP2 POP POP JUMP JUMPDEST PUSH0 PUSH0 PUSH1 0x40 DUP4 DUP6 SUB SLT ISZERO PUSH2 0x27D JUMPI PUSH2 0x27C PUSH2 0x1D6 JUMP JUMPDEST JUMPDEST PUSH0 PUSH2 0x28A DUP6 DUP3 DUP7 ADD PUSH2 0x220 JUMP JUMPDEST SWAP3 POP POP PUSH1 0x20 PUSH2 0x29B DUP6 DUP3 DUP7 ADD PUSH2 0x253 JUMP JUMPDEST SWAP2 POP POP SWAP3 POP SWAP3 SWAP1 POP JUMP JUMPDEST PUSH2 0x2AE DUP2 PUSH2 0x1F9 JUMP JUMPDEST DUP3 MSTORE POP POP JUMP JUMPDEST PUSH0 PUSH1 0x20 DUP3 ADD SWAP1 POP PUSH2 0x2C7 PUSH0 DUP4 ADD DUP5 PUSH2 0x2A5 JUMP JUMPDEST SWAP3 SWAP2 POP POP JUMP JUMPDEST PUSH32 0x4E487B7100000000000000000000000000000000000000000000000000000000 PUSH0 MSTORE PUSH1 0x11 PUSH1 0x4 MSTORE PUSH1 0x24 PUSH0 REVERT JUMPDEST PUSH0 PUSH2 0x304 DUP3 PUSH2 0x234 JUMP JUMPDEST SWAP2 POP PUSH2 0x30F DUP4 PUSH2 0x234 JUMP JUMPDEST SWAP3 POP DUP3 DUP3 MUL PUSH2 0x31D DUP2 PUSH2 0x234 JUMP JUMPDEST SWAP2 POP DUP3 DUP3 DIV DUP5 EQ DUP4 ISZERO OR PUSH2 0x334 JUMPI PUSH2 0x333 PUSH2 0x2CD JUMP JUMPDEST JUMPDEST POP SWAP3 SWAP2 POP POP JUMP JUMPDEST PUSH0 PUSH2 0x345 DUP3 PUSH2 0x234 JUMP JUMPDEST SWAP2 POP PUSH2 0x350 DUP4 PUSH2 0x234 JUMP JUMPDEST SWAP3 POP DUP3 DUP3 ADD SWAP1 POP DUP1 DUP3 GT ISZERO PUSH2 0x368 JUMPI PUSH2 0x367 PUSH2 0x2CD JUMP JUMPDEST JUMPDEST SWAP3 SWAP2 POP POP JUMP JUMPDEST PUSH1 0x80 MLOAD PUSH1 0xA0 MLOAD PUSH2 0x1081 PUSH2 0x3A4 PUSH0 CODECOPY PUSH0 DUP2 DUP2 PUSH2 0x1D0 ADD MSTORE PUSH2 0x4C7 ADD MSTORE PUSH0 DUP2 DUP2 PUSH2 0x33E ADD MSTORE DUP2 DUP2 PUSH2 0x47D ADD MSTORE PUSH2 0x5D6 ADD MSTORE PUSH2 0x1081 PUSH0 RETURN INVALID PUSH1 0x80 PUSH1 0x40 MSTORE CALLVALUE DUP1 ISZERO PUSH2 0xF JUMPI PUSH0 PUSH0 REVERT JUMPDEST POP PUSH1 0x4 CALLDATASIZE LT PUSH2 0x9C JUMPI PUSH0 CALLDATALOAD PUSH1 0xE0 SHR DUP1 PUSH4 0x8DA5CB5B GT PUSH2 0x64 JUMPI DUP1 PUSH4 0x8DA5CB5B EQ PUSH2 0x122 JUMPI DUP1 PUSH4 0xB6B55F25 EQ PUSH2 0x140 JUMPI DUP1 PUSH4 0xCEB6E1C6 EQ PUSH2 0x15C JUMPI DUP1 PUSH4 0xE7D21287 EQ PUSH2 0x17A JUMPI DUP1 PUSH4 0xF2FDE38B EQ PUSH2 0x1AA JUMPI PUSH2 0x9C JUMP JUMPDEST DUP1 PUSH4 0x3CCFD60B EQ PUSH2 0xA0 JUMPI DUP1 PUSH4 0x51ED6A30 EQ PUSH2 0xAA JUMPI DUP1 PUSH4 0x5C63CACB EQ PUSH2 0xC8 JUMPI DUP1 PUSH4 0x69AC5721 EQ PUSH2 0xFA JUMPI DUP1 PUSH4 0x715018A6 EQ PUSH2 0x118 JUMPI JUMPDEST PUSH0 PUSH0 REVERT JUMPDEST PUSH2 0xA8 PUSH2 0x1C6 JUMP JUMPDEST STOP JUMPDEST PUSH2 0xB2 PUSH2 0x47B JUMP JUMPDEST PUSH1 0x40 MLOAD PUSH2 0xBF SWAP2 SWAP1 PUSH2 0xA6D JUMP JUMPDEST PUSH1 0x40 MLOAD DUP1 SWAP2 SUB SWAP1 RETURN JUMPDEST PUSH2 0xE2 PUSH1 0x4 DUP1 CALLDATASIZE SUB DUP2 ADD SWAP1 PUSH2 0xDD SWAP2 SWAP1 PUSH2 0xAC5 JUMP JUMPDEST PUSH2 0x49F JUMP JUMPDEST PUSH1 0x40 MLOAD PUSH2 0xF1 SWAP4 SWAP3 SWAP2 SWAP1 PUSH2 0xB08 JUMP JUMPDEST PUSH1 0x40 MLOAD DUP1 SWAP2 SUB SWAP1 RETURN JUMPDEST PUSH2 0x102 PUSH2 0x4C5 JUMP JUMPDEST PUSH1 0x40 MLOAD PUSH2 0x10F SWAP2 SWAP1 PUSH2 0xB3D JUMP JUMPDEST PUSH1 0x40 MLOAD DUP1 SWAP2 SUB SWAP1 RETURN JUMPDEST PUSH2 0x120 PUSH2 0x4E9 JUMP JUMPDEST STOP JUMPDEST PUSH2 0x12A PUSH2 0x4FC JUMP JUMPDEST PUSH1 0x40 MLOAD PUSH2 0x137 SWAP2 SWAP1 PUSH2 0xB65 JUMP JUMPDEST PUSH1 0x40 MLOAD DUP1 SWAP2 SUB SWAP1 RETURN JUMPDEST PUSH2 0x15A PUSH1 0x4 DUP1 CALLDATASIZE SUB DUP2 ADD SWAP1 PUSH2 0x155 SWAP2 SWAP1 PUSH2 0xBA8 JUMP JUMPDEST PUSH2 0x523 JUMP JUMPDEST STOP JUMPDEST PUSH2 0x164 PUSH2 0x731 JUMP JUMPDEST PUSH1 0x40 MLOAD PUSH2 0x171 SWAP2 SWAP1 PUSH2 0xB3D JUMP JUMPDEST PUSH1 0x40 MLOAD DUP1 SWAP2 SUB SWAP1 RETURN JUMPDEST PUSH2 0x194 PUSH1 0x4 DUP1 CALLDATASIZE SUB DUP2 ADD SWAP1 PUSH2 0x18F SWAP2 SWAP1 PUSH2 0xAC5 JUMP JUMPDEST PUSH2 0x736 JUMP JUMPDEST PUSH1 0x40 MLOAD PUSH2 0x1A1 SWAP2 SWAP1 PUSH2 0xB3D JUMP JUMPDEST PUSH1 0x40 MLOAD DUP1 SWAP2 SUB SWAP1 RETURN JUMPDEST PUSH2 0x1C4 PUSH1 0x4 DUP1 CALLDATASIZE SUB DUP2 ADD SWAP1 PUSH2 0x1BF SWAP2 SWAP1 PUSH2 0xAC5 JUMP JUMPDEST PUSH2 0x7D1 JUMP JUMPDEST STOP JUMPDEST PUSH2 0x1CE PUSH2 0x855 JUMP JUMPDEST PUSH32 0x0 TIMESTAMP LT ISZERO PUSH2 0x231 JUMPI PUSH1 0x40 MLOAD PUSH32 0x8C379A000000000000000000000000000000000000000000000000000000000 DUP2 MSTORE PUSH1 0x4 ADD PUSH2 0x228 SWAP1 PUSH2 0xC53 JUMP JUMPDEST PUSH1 0x40 MLOAD DUP1 SWAP2 SUB SWAP1 REVERT JUMPDEST PUSH0 PUSH1 0x2 PUSH0 CALLER PUSH20 0xFFFFFFFFFFFFFFFFFFFFFFFFFFFFFFFFFFFFFFFF AND PUSH20 0xFFFFFFFFFFFFFFFFFFFFFFFFFFFFFFFFFFFFFFFF AND DUP2 MSTORE PUSH1 0x20 ADD SWAP1 DUP2 MSTORE PUSH1 0x20 ADD PUSH0 KECCAK256 SWAP1 POP PUSH0 DUP2 PUSH0 ADD SLOAD GT PUSH2 0x2B6 JUMPI PUSH1 0x40 MLOAD PUSH32 0x8C379A000000000000000000000000000000000000000000000000000000000 DUP2 MSTORE PUSH1 0x4 ADD PUSH2 0x2AD SWAP1 PUSH2 0xCBB JUMP JUMPDEST PUSH1 0x40 MLOAD DUP1 SWAP2 SUB SWAP1 REVERT JUMPDEST PUSH0 PUSH2 0x2C0 CALLER PUSH2 0x736 JUMP JUMPDEST SWAP1 POP PUSH0 DUP2 DUP4 PUSH1 0x1 ADD SLOAD PUSH2 0x2D3 SWAP2 SWAP1 PUSH2 0xD06 JUMP JUMPDEST SWAP1 POP PUSH0 DUP2 DUP5 PUSH0 ADD SLOAD PUSH2 0x2E5 SWAP2 SWAP1 PUSH2 0xD06 JUMP JUMPDEST SWAP1 POP PUSH1 0x2 PUSH0 CALLER PUSH20 0xFFFFFFFFFFFFFFFFFFFFFFFFFFFFFFFFFFFFFFFF AND PUSH20 0xFFFFFFFFFFFFFFFFFFFFFFFFFFFFFFFFFFFFFFFF AND DUP2 MSTORE PUSH1 0x20 ADD SWAP1 DUP2 MSTORE PUSH1 0x20 ADD PUSH0 KECCAK256 PUSH0 PUSH0 DUP3 ADD PUSH0 SWAP1 SSTORE PUSH1 0x1 DUP3 ADD PUSH0 SWAP1 SSTORE PUSH1 0x2 DUP3 ADD PUSH0 SWAP1 SSTORE POP POP PUSH0 PUSH32 0x0 PUSH20 0xFFFFFFFFFFFFFFFFFFFFFFFFFFFFFFFFFFFFFFFF AND PUSH4 0xA9059CBB CALLER DUP5 PUSH1 0x40 MLOAD DUP4 PUSH4 0xFFFFFFFF AND PUSH1 0xE0 SHL DUP2 MSTORE PUSH1 0x4 ADD PUSH2 0x397 SWAP3 SWAP2 SWAP1 PUSH2 0xD39 JUMP JUMPDEST PUSH1 0x20 PUSH1 0x40 MLOAD DUP1 DUP4 SUB DUP2 PUSH0 DUP8 GAS CALL ISZERO DUP1 ISZERO PUSH2 0x3B3 JUMPI RETURNDATASIZE PUSH0 PUSH0 RETURNDATACOPY RETURNDATASIZE PUSH0 REVERT JUMPDEST POP POP POP POP PUSH1 0x40 MLOAD RETURNDATASIZE PUSH1 0x1F NOT PUSH1 0x1F DUP3 ADD AND DUP3 ADD DUP1 PUSH1 0x40 MSTORE POP DUP2 ADD SWAP1 PUSH2 0x3D7 SWAP2 SWAP1 PUSH2 0xD95 JUMP JUMPDEST SWAP1 POP DUP1 PUSH2 0x419 JUMPI PUSH1 0x40 MLOAD PUSH32 0x8C379A000000000000000000000000000000000000000000000000000000000 DUP2 MSTORE PUSH1 0x4 ADD PUSH2 0x410 SWAP1 PUSH2 0xE0A JUMP JUMPDEST PUSH1 0x40 MLOAD DUP1 SWAP2 SUB SWAP1 REVERT JUMPDEST CALLER PUSH20 0xFFFFFFFFFFFFFFFFFFFFFFFFFFFFFFFFFFFFFFFF AND PUSH32 0x92CCF450A286A957AF52509BC1C9939D1A6A481783E142E41E2499F0BB66EBC6 DUP7 PUSH0 ADD SLOAD DUP6 PUSH1 0x40 MLOAD PUSH2 0x464 SWAP3 SWAP2 SWAP1 PUSH2 0xE28 JUMP JUMPDEST PUSH1 0x40 MLOAD DUP1 SWAP2 SUB SWAP1 LOG2 POP POP POP POP POP PUSH2 0x479 PUSH2 0x89B JUMP JUMPDEST JUMP JUMPDEST PUSH32 0x0 DUP2 JUMP JUMPDEST PUSH1 0x2 PUSH1 0x20 MSTORE DUP1 PUSH0 MSTORE PUSH1 0x40 PUSH0 KECCAK256 PUSH0 SWAP2 POP SWAP1 POP DUP1 PUSH0 ADD SLOAD SWAP1 DUP1 PUSH1 0x1 ADD SLOAD SWAP1 DUP1 PUSH1 0x2 ADD SLOAD SWAP1 POP DUP4 JUMP JUMPDEST PUSH32 0x0 DUP2 JUMP JUMPDEST PUSH2 0x4F1 PUSH2 0x8A4 JUMP JUMPDEST PUSH2 0x4FA PUSH0 PUSH2 0x92B JUMP JUMPDEST JUMP JUMPDEST PUSH0 PUSH0 PUSH0 SWAP1 SLOAD SWAP1 PUSH2 0x100 EXP SWAP1 DIV PUSH20 0xFFFFFFFFFFFFFFFFFFFFFFFFFFFFFFFFFFFFFFFF AND SWAP1 POP SWAP1 JUMP JUMPDEST PUSH2 0x52B PUSH2 0x855 JUMP JUMPDEST PUSH0 DUP2 GT PUSH2 0x56D JUMPI PUSH1 0x40 MLOAD PUSH32 0x8C379A000000000000000000000000000000000000000000000000000000000 DUP2 MSTORE PUSH1 0x4 ADD PUSH2 0x564 SWAP1 PUSH2 0xEBF JUMP JUMPDEST PUSH1 0x40 MLOAD DUP1 SWAP2 SUB SWAP1 REVERT JUMPDEST PUSH0 PUSH1 0x2 PUSH0 CALLER PUSH20 0xFFFFFFFFFFFFFFFFFFFFFFFFFFFFFFFFFFFFFFFF AND PUSH20 0xFFFFFFFFFFFFFFFFFFFFFFFFFFFFFFFFFFFFFFFF AND DUP2 MSTORE PUSH1 0x20 ADD SWAP1 DUP2 MSTORE PUSH1 0x20 ADD PUSH0 KECCAK256 SWAP1 POP PUSH0 PUSH2 0x5B7 CALLER PUSH2 0x736 JUMP JUMPDEST SWAP1 POP DUP1 DUP3 PUSH1 0x1 ADD PUSH0 DUP3 DUP3 SLOAD PUSH2 0x5CC SWAP2 SWAP1 PUSH2 0xD06 JUMP JUMPDEST SWAP3 POP POP DUP2 SWAP1 SSTORE POP PUSH0 PUSH32 0x0 PUSH20 0xFFFFFFFFFFFFFFFFFFFFFFFFFFFFFFFFFFFFFFFF AND PUSH4 0x23B872DD CALLER ADDRESS DUP8 PUSH1 0x40 MLOAD DUP5 PUSH4 0xFFFFFFFF AND PUSH1 0xE0 SHL DUP2 MSTORE PUSH1 0x4 ADD PUSH2 0x631 SWAP4 SWAP3 SWAP2 SWAP1 PUSH2 0xEDD JUMP JUMPDEST PUSH1 0x20 PUSH1 0x40 MLOAD DUP1 DUP4 SUB DUP2 PUSH0 DUP8 GAS CALL ISZERO DUP1 ISZERO PUSH2 0x64D JUMPI RETURNDATASIZE PUSH0 PUSH0 RETURNDATACOPY RETURNDATASIZE PUSH0 REVERT JUMPDEST POP POP POP POP PUSH1 0x40 MLOAD RETURNDATASIZE PUSH1 0x1F NOT PUSH1 0x1F DUP3 ADD AND DUP3 ADD DUP1 PUSH1 0x40 MSTORE POP DUP2 ADD SWAP1 PUSH2 0x671 SWAP2 SWAP1 PUSH2 0xD95 JUMP JUMPDEST SWAP1 POP DUP1 PUSH2 0x6B3 JUMPI PUSH1 0x40 MLOAD PUSH32 0x8C379A000000000000000000000000000000000000000000000000000000000 DUP2 MSTORE PUSH1 0x4 ADD PUSH2 0x6AA SWAP1 PUSH2 0xF5C JUMP JUMPDEST PUSH1 0x40 MLOAD DUP1 SWAP2 SUB SWAP1 REVERT JUMPDEST DUP4 DUP4 PUSH0 ADD PUSH0 DUP3 DUP3 SLOAD PUSH2 0x6C5 SWAP2 SWAP1 PUSH2 0xD06 JUMP JUMPDEST SWAP3 POP POP DUP2 SWAP1 SSTORE POP TIMESTAMP DUP4 PUSH1 0x2 ADD DUP2 SWAP1 SSTORE POP CALLER PUSH20 0xFFFFFFFFFFFFFFFFFFFFFFFFFFFFFFFFFFFFFFFF AND PUSH32 0x2DA466A7B24304F47E87FA2E1E5A81B9831CE54FEC19055CE277CA2F39BA42C4 DUP6 PUSH1 0x40 MLOAD PUSH2 0x71B SWAP2 SWAP1 PUSH2 0xB3D JUMP JUMPDEST PUSH1 0x40 MLOAD DUP1 SWAP2 SUB SWAP1 LOG2 POP POP POP PUSH2 0x72E PUSH2 0x89B JUMP JUMPDEST POP JUMP JUMPDEST PUSH1 0xA DUP2 JUMP JUMPDEST PUSH0 PUSH0 PUSH1 0x2 PUSH0 DUP5 PUSH20 0xFFFFFFFFFFFFFFFFFFFFFFFFFFFFFFFFFFFFFFFF AND PUSH20 0xFFFFFFFFFFFFFFFFFFFFFFFFFFFFFFFFFFFFFFFF AND DUP2 MSTORE PUSH1 0x20 ADD SWAP1 DUP2 MSTORE PUSH1 0x20 ADD PUSH0 KECCAK256 SWAP1 POP PUSH0 DUP2 PUSH0 ADD SLOAD SUB PUSH2 0x78A JUMPI PUSH0 SWAP2 POP POP PUSH2 0x7CC JUMP JUMPDEST PUSH0 DUP2 PUSH1 0x2 ADD SLOAD TIMESTAMP PUSH2 0x79B SWAP2 SWAP1 PUSH2 0xF7A JUMP JUMPDEST SWAP1 POP PUSH4 0xBBF81E00 DUP2 PUSH1 0xA DUP5 PUSH0 ADD SLOAD PUSH2 0x7B3 SWAP2 SWAP1 PUSH2 0xFAD JUMP JUMPDEST PUSH2 0x7BD SWAP2 SWAP1 PUSH2 0xFAD JUMP JUMPDEST PUSH2 0x7C7 SWAP2 SWAP1 PUSH2 0x101B JUMP JUMPDEST SWAP3 POP POP POP JUMPDEST SWAP2 SWAP1 POP JUMP JUMPDEST PUSH2 0x7D9 PUSH2 0x8A4 JUMP JUMPDEST PUSH0 PUSH20 0xFFFFFFFFFFFFFFFFFFFFFFFFFFFFFFFFFFFFFFFF AND DUP2 PUSH20 0xFFFFFFFFFFFFFFFFFFFFFFFFFFFFFFFFFFFFFFFF AND SUB PUSH2 0x849 JUMPI PUSH0 PUSH1 0x40 MLOAD PUSH32 0x1E4FBDF700000000000000000000000000000000000000000000000000000000 DUP2 MSTORE PUSH1 0x4 ADD PUSH2 0x840 SWAP2 SWAP1 PUSH2 0xB65 JUMP JUMPDEST PUSH1 0x40 MLOAD DUP1 SWAP2 SUB SWAP1 REVERT JUMPDEST PUSH2 0x852 DUP2 PUSH2 0x92B JUMP JUMPDEST POP JUMP JUMPDEST PUSH1 0x2 PUSH1 0x1 SLOAD SUB PUSH2 0x891 JUMPI PUSH1 0x40 MLOAD PUSH32 0x3EE5AEB500000000000000000000000000000000000000000000000000000000 DUP2 MSTORE PUSH1 0x4 ADD PUSH1 0x40 MLOAD DUP1 SWAP2 SUB SWAP1 REVERT JUMPDEST PUSH1 0x2 PUSH1 0x1 DUP2 SWAP1 SSTORE POP JUMP JUMPDEST PUSH1 0x1 DUP1 DUP2 SWAP1 SSTORE POP JUMP JUMPDEST PUSH2 0x8AC PUSH2 0x9EC JUMP JUMPDEST PUSH20 0xFFFFFFFFFFFFFFFFFFFFFFFFFFFFFFFFFFFFFFFF AND PUSH2 0x8CA PUSH2 0x4FC JUMP JUMPDEST PUSH20 0xFFFFFFFFFFFFFFFFFFFFFFFFFFFFFFFFFFFFFFFF AND EQ PUSH2 0x929 JUMPI PUSH2 0x8ED PUSH2 0x9EC JUMP JUMPDEST PUSH1 0x40 MLOAD PUSH32 0x118CDAA700000000000000000000000000000000000000000000000000000000 DUP2 MSTORE PUSH1 0x4 ADD PUSH2 0x920 SWAP2 SWAP1 PUSH2 0xB65 JUMP JUMPDEST PUSH1 0x40 MLOAD DUP1 SWAP2 SUB SWAP1 REVERT JUMPDEST JUMP JUMPDEST PUSH0 PUSH0 PUSH0 SWAP1 SLOAD SWAP1 PUSH2 0x100 EXP SWAP1 DIV PUSH20 0xFFFFFFFFFFFFFFFFFFFFFFFFFFFFFFFFFFFFFFFF AND SWAP1 POP DUP2 PUSH0 PUSH0 PUSH2 0x100 EXP DUP2 SLOAD DUP2 PUSH20 0xFFFFFFFFFFFFFFFFFFFFFFFFFFFFFFFFFFFFFFFF MUL NOT AND SWAP1 DUP4 PUSH20 0xFFFFFFFFFFFFFFFFFFFFFFFFFFFFFFFFFFFFFFFF AND MUL OR SWAP1 SSTORE POP DUP2 PUSH20 0xFFFFFFFFFFFFFFFFFFFFFFFFFFFFFFFFFFFFFFFF AND DUP2 PUSH20 0xFFFFFFFFFFFFFFFFFFFFFFFFFFFFFFFFFFFFFFFF AND PUSH32 0x8BE0079C531659141344CD1FD0A4F28419497F9722A3DAAFE3B4186F6B6457E0 PUSH1 0x40 MLOAD PUSH1 0x40 MLOAD DUP1 SWAP2 SUB SWAP1 LOG3 POP POP JUMP JUMPDEST PUSH0 CALLER SWAP1 POP SWAP1 JUMP JUMPDEST PUSH0 PUSH20 0xFFFFFFFFFFFFFFFFFFFFFFFFFFFFFFFFFFFFFFFF DUP3 AND SWAP1 POP SWAP2 SWAP1 POP JUMP JUMPDEST PUSH0 DUP2 SWAP1 POP SWAP2 SWAP1 POP JUMP JUMPDEST PUSH0 PUSH2 0xA35 PUSH2 0xA30 PUSH2 0xA2B DUP5 PUSH2 0x9F3 JUMP JUMPDEST PUSH2 0xA12 JUMP JUMPDEST PUSH2 0x9F3 JUMP JUMPDEST SWAP1 POP SWAP2 SWAP1 POP JUMP JUMPDEST PUSH0 PUSH2 0xA46 DUP3 PUSH2 0xA1B JUMP JUMPDEST SWAP1 POP SWAP2 SWAP1 POP JUMP JUMPDEST PUSH0 PUSH2 0xA57 DUP3 PUSH2 0xA3C JUMP JUMPDEST SWAP1 POP SWAP2 SWAP1 POP JUMP JUMPDEST PUSH2 0xA67 DUP2 PUSH2 0xA4D JUMP JUMPDEST DUP3 MSTORE POP POP JUMP JUMPDEST PUSH0 PUSH1 0x20 DUP3 ADD SWAP1 POP PUSH2 0xA80 PUSH0 DUP4 ADD DUP5 PUSH2 0xA5E JUMP JUMPDEST SWAP3 SWAP2 POP POP JUMP JUMPDEST PUSH0 PUSH0 REVERT JUMPDEST PUSH0 PUSH2 0xA94 DUP3 PUSH2 0x9F3 JUMP JUMPDEST SWAP1 POP SWAP2 SWAP1 POP JUMP JUMPDEST PUSH2 0xAA4 DUP2 PUSH2 0xA8A JUMP JUMPDEST DUP2 EQ PUSH2 0xAAE JUMPI PUSH0 PUSH0 REVERT JUMPDEST POP JUMP JUMPDEST PUSH0 DUP2 CALLDATALOAD SWAP1 POP PUSH2 0xABF DUP2 PUSH2 0xA9B JUMP JUMPDEST SWAP3 SWAP2 POP POP JUMP JUMPDEST PUSH0 PUSH1 0x20 DUP3 DUP5 SUB SLT ISZERO PUSH2 0xADA JUMPI PUSH2 0xAD9 PUSH2 0xA86 JUMP JUMPDEST JUMPDEST PUSH0 PUSH2 0xAE7 DUP5 DUP3 DUP6 ADD PUSH2 0xAB1 JUMP JUMPDEST SWAP2 POP POP SWAP3 SWAP2 POP POP JUMP JUMPDEST PUSH0 DUP2 SWAP1 POP SWAP2 SWAP1 POP JUMP JUMPDEST PUSH2 0xB02 DUP2 PUSH2 0xAF0 JUMP JUMPDEST DUP3 MSTORE POP POP JUMP JUMPDEST PUSH0 PUSH1 0x60 DUP3 ADD SWAP1 POP PUSH2 0xB1B PUSH0 DUP4 ADD DUP7 PUSH2 0xAF9 JUMP JUMPDEST PUSH2 0xB28 PUSH1 0x20 DUP4 ADD DUP6 PUSH2 0xAF9 JUMP JUMPDEST PUSH2 0xB35 PUSH1 0x40 DUP4 ADD DUP5 PUSH2 0xAF9 JUMP JUMPDEST SWAP5 SWAP4 POP POP POP POP JUMP JUMPDEST PUSH0 PUSH1 0x20 DUP3 ADD SWAP1 POP PUSH2 0xB50 PUSH0 DUP4 ADD DUP5 PUSH2 0xAF9 JUMP JUMPDEST SWAP3 SWAP2 POP POP JUMP JUMPDEST PUSH2 0xB5F DUP2 PUSH2 0xA8A JUMP JUMPDEST DUP3 MSTORE POP POP JUMP JUMPDEST PUSH0 PUSH1 0x20 DUP3 ADD SWAP1 POP PUSH2 0xB78 PUSH0 DUP4 ADD DUP5 PUSH2 0xB56 JUMP JUMPDEST SWAP3 SWAP2 POP POP JUMP JUMPDEST PUSH2 0xB87 DUP2 PUSH2 0xAF0 JUMP JUMPDEST DUP2 EQ PUSH2 0xB91 JUMPI PUSH0 PUSH0 REVERT JUMPDEST POP JUMP JUMPDEST PUSH0 DUP2 CALLDATALOAD SWAP1 POP PUSH2 0xBA2 DUP2 PUSH2 0xB7E JUMP JUMPDEST SWAP3 SWAP2 POP POP JUMP JUMPDEST PUSH0 PUSH1 0x20 DUP3 DUP5 SUB SLT ISZERO PUSH2 0xBBD JUMPI PUSH2 0xBBC PUSH2 0xA86 JUMP JUMPDEST JUMPDEST PUSH0 PUSH2 0xBCA DUP5 DUP3 DUP6 ADD PUSH2 0xB94 JUMP JUMPDEST SWAP2 POP POP SWAP3 SWAP2 POP POP JUMP JUMPDEST PUSH0 DUP3 DUP3 MSTORE PUSH1 0x20 DUP3 ADD SWAP1 POP SWAP3 SWAP2 POP POP JUMP JUMPDEST PUSH32 0x4C6F7320666F6E646F732061756E206E6F2070756564656E2073657220726574 PUSH0 DUP3 ADD MSTORE PUSH32 0x697261646F730000000000000000000000000000000000000000000000000000 PUSH1 0x20 DUP3 ADD MSTORE POP JUMP JUMPDEST PUSH0 PUSH2 0xC3D PUSH1 0x26 DUP4 PUSH2 0xBD3 JUMP JUMPDEST SWAP2 POP PUSH2 0xC48 DUP3 PUSH2 0xBE3 JUMP JUMPDEST PUSH1 0x40 DUP3 ADD SWAP1 POP SWAP2 SWAP1 POP JUMP JUMPDEST PUSH0 PUSH1 0x20 DUP3 ADD SWAP1 POP DUP2 DUP2 SUB PUSH0 DUP4 ADD MSTORE PUSH2 0xC6A DUP2 PUSH2 0xC31 JUMP JUMPDEST SWAP1 POP SWAP2 SWAP1 POP JUMP JUMPDEST PUSH32 0x4E6F207469656E657320666F6E646F7320706172612072657469726172000000 PUSH0 DUP3 ADD MSTORE POP JUMP JUMPDEST PUSH0 PUSH2 0xCA5 PUSH1 0x1D DUP4 PUSH2 0xBD3 JUMP JUMPDEST SWAP2 POP PUSH2 0xCB0 DUP3 PUSH2 0xC71 JUMP JUMPDEST PUSH1 0x20 DUP3 ADD SWAP1 POP SWAP2 SWAP1 POP JUMP JUMPDEST PUSH0 PUSH1 0x20 DUP3 ADD SWAP1 POP DUP2 DUP2 SUB PUSH0 DUP4 ADD MSTORE PUSH2 0xCD2 DUP2 PUSH2 0xC99 JUMP JUMPDEST SWAP1 POP SWAP2 SWAP1 POP JUMP JUMPDEST PUSH32 0x4E487B7100000000000000000000000000000000000000000000000000000000 PUSH0 MSTORE PUSH1 0x11 PUSH1 0x4 MSTORE PUSH1 0x24 PUSH0 REVERT JUMPDEST PUSH0 PUSH2 0xD10 DUP3 PUSH2 0xAF0 JUMP JUMPDEST SWAP2 POP PUSH2 0xD1B DUP4 PUSH2 0xAF0 JUMP JUMPDEST SWAP3 POP DUP3 DUP3 ADD SWAP1 POP DUP1 DUP3 GT ISZERO PUSH2 0xD33 JUMPI PUSH2 0xD32 PUSH2 0xCD9 JUMP JUMPDEST JUMPDEST SWAP3 SWAP2 POP POP JUMP JUMPDEST PUSH0 PUSH1 0x40 DUP3 ADD SWAP1 POP PUSH2 0xD4C PUSH0 DUP4 ADD DUP6 PUSH2 0xB56 JUMP JUMPDEST PUSH2 0xD59 PUSH1 0x20 DUP4 ADD DUP5 PUSH2 0xAF9 JUMP JUMPDEST SWAP4 SWAP3 POP POP POP JUMP JUMPDEST PUSH0 DUP2 ISZERO ISZERO SWAP1 POP SWAP2 SWAP1 POP JUMP JUMPDEST PUSH2 0xD74 DUP2 PUSH2 0xD60 JUMP JUMPDEST DUP2 EQ PUSH2 0xD7E JUMPI PUSH0 PUSH0 REVERT JUMPDEST POP JUMP JUMPDEST PUSH0 DUP2 MLOAD SWAP1 POP PUSH2 0xD8F DUP2 PUSH2 0xD6B JUMP JUMPDEST SWAP3 SWAP2 POP POP JUMP JUMPDEST PUSH0 PUSH1 0x20 DUP3 DUP5 SUB SLT ISZERO PUSH2 0xDAA JUMPI PUSH2 0xDA9 PUSH2 0xA86 JUMP JUMPDEST JUMPDEST PUSH0 PUSH2 0xDB7 DUP5 DUP3 DUP6 ADD PUSH2 0xD81 JUMP JUMPDEST SWAP2 POP POP SWAP3 SWAP2 POP POP JUMP JUMPDEST PUSH32 0x4C61207472616E73666572656E6369612064652072657469726F2066616C6C6F PUSH0 DUP3 ADD MSTORE POP JUMP JUMPDEST PUSH0 PUSH2 0xDF4 PUSH1 0x20 DUP4 PUSH2 0xBD3 JUMP JUMPDEST SWAP2 POP PUSH2 0xDFF DUP3 PUSH2 0xDC0 JUMP JUMPDEST PUSH1 0x20 DUP3 ADD SWAP1 POP SWAP2 SWAP1 POP JUMP JUMPDEST PUSH0 PUSH1 0x20 DUP3 ADD SWAP1 POP DUP2 DUP2 SUB PUSH0 DUP4 ADD MSTORE PUSH2 0xE21 DUP2 PUSH2 0xDE8 JUMP JUMPDEST SWAP1 POP SWAP2 SWAP1 POP JUMP JUMPDEST PUSH0 PUSH1 0x40 DUP3 ADD SWAP1 POP PUSH2 0xE3B PUSH0 DUP4 ADD DUP6 PUSH2 0xAF9 JUMP JUMPDEST PUSH2 0xE48 PUSH1 0x20 DUP4 ADD DUP5 PUSH2 0xAF9 JUMP JUMPDEST SWAP4 SWAP3 POP POP POP JUMP JUMPDEST PUSH32 0x4C612063616E7469646164206465626520736572206D61796F72206120636572 PUSH0 DUP3 ADD MSTORE PUSH32 0x6F00000000000000000000000000000000000000000000000000000000000000 PUSH1 0x20 DUP3 ADD MSTORE POP JUMP JUMPDEST PUSH0 PUSH2 0xEA9 PUSH1 0x21 DUP4 PUSH2 0xBD3 JUMP JUMPDEST SWAP2 POP PUSH2 0xEB4 DUP3 PUSH2 0xE4F JUMP JUMPDEST PUSH1 0x40 DUP3 ADD SWAP1 POP SWAP2 SWAP1 POP JUMP JUMPDEST PUSH0 PUSH1 0x20 DUP3 ADD SWAP1 POP DUP2 DUP2 SUB PUSH0 DUP4 ADD MSTORE PUSH2 0xED6 DUP2 PUSH2 0xE9D JUMP JUMPDEST SWAP1 POP SWAP2 SWAP1 POP JUMP JUMPDEST PUSH0 PUSH1 0x60 DUP3 ADD SWAP1 POP PUSH2 0xEF0 PUSH0 DUP4 ADD DUP7 PUSH2 0xB56 JUMP JUMPDEST PUSH2 0xEFD PUSH1 0x20 DUP4 ADD DUP6 PUSH2 0xB56 JUMP JUMPDEST PUSH2 0xF0A PUSH1 0x40 DUP4 ADD DUP5 PUSH2 0xAF9 JUMP JUMPDEST SWAP5 SWAP4 POP POP POP POP JUMP JUMPDEST PUSH32 0x4C61207472616E73666572656E63696120646520746F6B656E732066616C6C6F PUSH0 DUP3 ADD MSTORE POP JUMP JUMPDEST PUSH0 PUSH2 0xF46 PUSH1 0x20 DUP4 PUSH2 0xBD3 JUMP JUMPDEST SWAP2 POP PUSH2 0xF51 DUP3 PUSH2 0xF12 JUMP JUMPDEST PUSH1 0x20 DUP3 ADD SWAP1 POP SWAP2 SWAP1 POP JUMP JUMPDEST PUSH0 PUSH1 0x20 DUP3 ADD SWAP1 POP DUP2 DUP2 SUB PUSH0 DUP4 ADD MSTORE PUSH2 0xF73 DUP2 PUSH2 0xF3A JUMP JUMPDEST SWAP1 POP SWAP2 SWAP1 POP JUMP JUMPDEST PUSH0 PUSH2 0xF84 DUP3 PUSH2 0xAF0 JUMP JUMPDEST SWAP2 POP PUSH2 0xF8F DUP4 PUSH2 0xAF0 JUMP JUMPDEST SWAP3 POP DUP3 DUP3 SUB SWAP1 POP DUP2 DUP2 GT ISZERO PUSH2 0xFA7 JUMPI PUSH2 0xFA6 PUSH2 0xCD9 JUMP JUMPDEST JUMPDEST SWAP3 SWAP2 POP POP JUMP JUMPDEST PUSH0 PUSH2 0xFB7 DUP3 PUSH2 0xAF0 JUMP JUMPDEST SWAP2 POP PUSH2 0xFC2 DUP4 PUSH2 0xAF0 JUMP JUMPDEST SWAP3 POP DUP3 DUP3 MUL PUSH2 0xFD0 DUP2 PUSH2 0xAF0 JUMP JUMPDEST SWAP2 POP DUP3 DUP3 DIV DUP5 EQ DUP4 ISZERO OR PUSH2 0xFE7 JUMPI PUSH2 0xFE6 PUSH2 0xCD9 JUMP JUMPDEST JUMPDEST POP SWAP3 SWAP2 POP POP JUMP JUMPDEST PUSH32 0x4E487B7100000000000000000000000000000000000000000000000000000000 PUSH0 MSTORE PUSH1 0x12 PUSH1 0x4 MSTORE PUSH1 0x24 PUSH0 REVERT JUMPDEST PUSH0 PUSH2 0x1025 DUP3 PUSH2 0xAF0 JUMP JUMPDEST SWAP2 POP PUSH2 0x1030 DUP4 PUSH2 0xAF0 JUMP JUMPDEST SWAP3 POP DUP3 PUSH2 0x1040 JUMPI PUSH2 0x103F PUSH2 0xFEE JUMP JUMPDEST JUMPDEST DUP3 DUP3 DIV SWAP1 POP SWAP3 SWAP2 POP POP JUMP INVALID LOG2 PUSH5 0x6970667358 0x22 SLT KECCAK256 PUSH10 0xD17A5C2AF35EF5696398 PUSH21 0x7C72B2C17631F3646C72A922D8EAC3ABB92DD78C64 PUSH20 0x6F6C634300081E00330000000000000000000000 "
				},
				"gasEstimates": {
					"creation": {
						"codeDepositCost": "845000",
						"executionCost": "infinite",
						"totalCost": "infinite"
					},
					"external": {
						"REWARD_RATE_PER_YEAR()": "369",
						"calculatePendingReward(address)": "infinite",
						"deposit(uint256)": "infinite",
						"owner()": "2514",
						"renounceOwnership()": "infinite",
						"savers(address)": "infinite",
						"stakeToken()": "infinite",
						"transferOwnership(address)": "infinite",
						"unlockDate()": "infinite",
						"withdraw()": "infinite"
					}
				},
				"methodIdentifiers": {
					"REWARD_RATE_PER_YEAR()": "ceb6e1c6",
					"calculatePendingReward(address)": "e7d21287",
					"deposit(uint256)": "b6b55f25",
					"owner()": "8da5cb5b",
					"renounceOwnership()": "715018a6",
					"savers(address)": "5c63cacb",
					"stakeToken()": "51ed6a30",
					"transferOwnership(address)": "f2fde38b",
					"unlockDate()": "69ac5721",
					"withdraw()": "3ccfd60b"
				}
			},
			"storageLayout": {
				"storage": [
					{
						"astId": 8,
						"contract": "Saving-Bank-Project/contracts/SavingsContract.sol:SavingsContract",
						"label": "_owner",
						"offset": 0,
						"slot": "0",
						"type": "t_address"
					},
					{
						"astId": 266,
						"contract": "Saving-Bank-Project/contracts/SavingsContract.sol:SavingsContract",
						"label": "_status",
						"offset": 0,
						"slot": "1",
						"type": "t_uint256"
					},
					{
						"astId": 354,
						"contract": "Saving-Bank-Project/contracts/SavingsContract.sol:SavingsContract",
						"label": "savers",
						"offset": 0,
						"slot": "2",
						"type": "t_mapping(t_address,t_struct(Savings)349_storage)"
					}
				],
				"types": {
					"t_address": {
						"encoding": "inplace",
						"label": "address",
						"numberOfBytes": "20"
					},
					"t_mapping(t_address,t_struct(Savings)349_storage)": {
						"encoding": "mapping",
						"key": "t_address",
						"label": "mapping(address => struct SavingsContract.Savings)",
						"numberOfBytes": "32",
						"value": "t_struct(Savings)349_storage"
					},
					"t_struct(Savings)349_storage": {
						"encoding": "inplace",
						"label": "struct SavingsContract.Savings",
						"members": [
							{
								"astId": 344,
								"contract": "Saving-Bank-Project/contracts/SavingsContract.sol:SavingsContract",
								"label": "totalAmount",
								"offset": 0,
								"slot": "0",
								"type": "t_uint256"
							},
							{
								"astId": 346,
								"contract": "Saving-Bank-Project/contracts/SavingsContract.sol:SavingsContract",
								"label": "accumulatedReward",
								"offset": 0,
								"slot": "1",
								"type": "t_uint256"
							},
							{
								"astId": 348,
								"contract": "Saving-Bank-Project/contracts/SavingsContract.sol:SavingsContract",
								"label": "lastUpdateTime",
								"offset": 0,
								"slot": "2",
								"type": "t_uint256"
							}
						],
						"numberOfBytes": "96"
					},
					"t_uint256": {
						"encoding": "inplace",
						"label": "uint256",
						"numberOfBytes": "32"
					}
				}
			},
			"userdoc": {
				"kind": "user",
				"methods": {
					"calculatePendingReward(address)": {
						"notice": "Calcula la recompensa generada desde la última actualización."
					},
					"deposit(uint256)": {
						"notice": "Permite a un usuario depositar tokens STK en cualquier momento."
					},
					"withdraw()": {
						"notice": "Permite a un usuario retirar su saldo total (depósitos + recompensas) solo después de la fecha de desbloqueo."
					}
				},
				"version": 1
			}
		}
	}
}